:020000040000FA
:060000001AEF2FF01200C0
:0A0006000200115F000080000000FE
:100010007E000000525E000000020000BF000000F1
:10002000D9CFE6FFE1CFD9FF030EE126020EDE6E47
:10003000DD6ADB6A8A900501016B026B01C5E6FF90
:10004000D5EC2EF0E55202C5E6FFD5EC2EF0E552D8
:100050008A80020EDB50106E030EE15C03E200D0DA
:10006000E16AE552E16E1050E552E7CFD9FF120088
:10007000D9CFE6FFE1CFD9FFE652DF6A8A90FC0EC6
:10008000DBCF10F0FD0EDBCF11F011C010F0116AC4
:100090000F0E1016000E1116300E10240501016F00
:1000A000FF0EE76EFC0EDBCF10F0FD0EDBCF11F084
:1000B000E7501016116A10C002F501C5E6FFD5EC35
:1000C0002EF0E55202C5E6FFD5EC2EF0E552F3EC3A
:1000D0002EF0E66EFA0EDBCFE9FFFB0EDBCFEAFF78
:1000E000E552E750EF6E8A80DF5000D0E552E552CE
:1000F000E7CFD9FF1200D9CFE6FFE1CFD9FF030E3A
:10010000E126DE6EDD6A020EDB6A8A90FC0EDBCF32
:1001100010F0FD0EDBCF11F011C010F0116A0F0EC0
:100120001016000E1116200E10240501016FFF0E8F
:10013000E76EFC0EDBCF10F0FD0EDBCF11F0E750C9
:100140001016116A10C002F5FB0EDBCF03F501C5D6
:10015000E6FFD5EC2EF0E55202C5E6FFD5EC2EF019
:10016000E55203C5E6FFD5EC2EF0E5528A80020E7B
:10017000DB50106E030EE15C03E200D0E16AE55251
:10018000E16E1050E552E7CFD9FF1200D9CFE6FF5C
:10019000E1CFD9FF080EE126060EF36E050EF3CF70
:1001A000DBFF060EDB6A070EDB6A8A90FC0EDBCFF4
:1001B00010F0FD0EDBCF11F011C010F0116A0F0E20
:1001C0001016000E1116300E10240501016FFF0EDF
:1001D000E76EFC0EDBCF10F0FD0EDBCF11F0E75029
:1001E0001016116A10C002F501C5E6FFD5EC2EF01D
:1001F000E55202C5E6FFD5EC2EF0E552FA0EDBCF54
:10020000E9FFFB0EDBCFEAFFEE6AEE6AEE6AEE6A0A
:10021000020EDF6E060EDF5C35E2F3EC2EF0106EA0
:10022000010E10C0DBFF020EDB6A030EDB6A040E58
:10023000DB6A010EDBCF10F0020EDBCF11F0030EF4
:10024000DBCF12F0040EDBCF13F0020EDF5C080DE3
:10025000F3501F0B07E0D8901036113612361336C4
:10026000E806F9E1FA0EDBCFE9FFFB0EDBCFEAFF90
:100270001050EE261150EE221250EE221350EE22B4
:10028000DF2AC8D78A80070EDB50106E080EE15CAB
:1002900003E200D0E16AE552E16E1050E552E7CF8B
:1002A000D9FF1200D9CFE6FFE1CFD9FF040EE12636
:1002B000060EF36E010EF3CFDBFF020EDB6A030EB8
:1002C000DB6A8A90FC0EDBCF10F0FD0EDBCF11F065
:1002D00011C010F0116A0F0E1016000E1116200E2C
:1002E00010240501016FFF0EE76EFC0EDBCF10F04E
:1002F000FD0EDBCF11F0E7501016116A10C002F5A9
:1003000001C5E6FFD5EC2EF0E55202C5E6FFD5ECBF
:100310002EF0E552DF6A040EDF5C36E2080EDF02E3
:10032000F3CF14F0D950F80FE96EFF0EDA20EA6E21
:1003300014501F0BEECF10F0EECF11F0EECF12F0F5
:10034000EECF13F007E0D890133212321132103290
:10035000E806F9E11050E66E020EDF24EA6A010FAA
:10036000E96E050EEA22E552E750EF6E020EDF2439
:10037000EA6A010FE96E050EEA22EF50E66ED5EC4F
:100380002EF0E552DF2AC7D78A80030EDB50106EAD
:10039000040EE15C03E200D0E16AE552E16E105028
:1003A000E552E7CFD9FF1200D9CFE6FFE1CFD9FF61
:1003B000080EE126040EF36E050EF3CFDBFF060EEA
:1003C000DB6A070EDB6A8A90FC0EDBCF10F0FD0EB5
:1003D000DBCF11F011C010F0116A0F0E1016000ED5
:1003E0001116300E10240501016FFF0EE76EFC0E92
:1003F000DBCF10F0FD0EDBCF11F0E7501016116AC5
:1004000010C002F501C5E6FFD5EC2EF0E55202C59D
:10041000E6FFD5EC2EF0E552070EDB5003E0070EA9
:10042000DB5042D0FA0EDBCFE9FFFB0EDBCFEAFF59
:10043000EE6AED6A020EDF6E040EDF5C31E2F3EC71
:100440002EF0106E010E10C0DBFF020EDB6A030EF1
:10045000DB6A040EDB6A010EDBCF10F0020EDBCF8D
:1004600011F0030EDBCF12F0040EDBCF13F0020EFF
:10047000DF5C080DF3501F0B07E0D89010361136E3
:1004800012361336E806F9E1FA0EDBCFE9FFFB0E70
:10049000DBCFEAFF1050EE261150ED22DF2ACCD739
:1004A0008A80070EDB5000D0106E080EE15C02E27D
:1004B000E16AE552E16E1050E552E7CFD9FF120034
:1004C000D9CFE6FFE1CFD9FF040EE126F36E010E8E
:1004D000F3CFDBFF020EDB6A030EDB6A8A90FC0EB1
:1004E000DBCF10F0FD0EDBCF11F011C010F0116A60
:1004F0000F0E1016000E1116200E10240501016FAC
:10050000FF0EE76EFC0EDBCF10F0FD0EDBCF11F01F
:10051000E7501016116A10C002F501C5E6FFD5ECD0
:100520002EF0E55202C5E6FFD5EC2EF0E552DF6A6B
:10053000020EDF5C2EE2FA0EDBCF12F0FB0EDBCFF9
:1005400013F0080EDF02F35012C010F013C011F0C8
:1005500005E0D89011321032E804FBE1FF0E1016CE
:10056000000E1116020EDF24EA6A010FE96E050E75
:10057000EA2210C0EFFF020EDF24EA6A010FE96EE3
:10058000050EEA22EF50E66ED5EC2EF0E552DF2A9A
:10059000CFD78A80030EDB50106E040EE15C03E2BD
:1005A00000D0E16AE552E16E1050E552E7CFD9FF85
:1005B0001200D9CFE6FFE1CFD9FF050EE126020EEA
:1005C000E76EF80EDBCF10F0F90EDBCF11F0E7503D
:1005D0001026000E1122020E10C0DBFF030E11C008
:1005E000DBFF040EDB6A8A90FC0EDBCF10F0FD0E01
:1005F000DBCF11F011C010F0116A0F0E1016000EB3
:100600001116300E10240501016FFF0EE76EFC0E6F
:10061000DBCF10F0FD0EDBCF11F0E7501016116AA2
:1006200010C002F501C5E6FFD5EC2EF0E55202C57B
:10063000E6FFD5EC2EF0E552DE6ADD6ADECF10F083
:10064000DDCF11F0F80EDBCF12F0F90EDBCF13F097
:100650001250105C1350115817E2F3EC2EF0E66EB6
:10066000FA0EDBCF10F0FB0EDBCF11F0DE501024C2
:10067000E96EDD501120EA6EE552E750EF6EDF2A99
:10068000010E01E3DB2ADAD78A80040EDB50106EFC
:10069000050EE15C03E200D0E16AE552E16E105024
:1006A000E552E7CFD9FF1200D9CFE6FFE1CFD9FF5E
:1006B000050EE126020EE76EF80EDBCF10F0F90E04
:1006C000DBCF11F0E7501026000E1122020E10C0F1
:1006D000DBFF030E11C0DBFF040EDB6A8A90FC0E09
:1006E000DBCF10F0FD0EDBCF11F011C010F0116A5E
:1006F0000F0E1016000E1116200E10240501016FAA
:10070000FF0EE76EFC0EDBCF10F0FD0EDBCF11F01D
:10071000E7501016116A10C002F501C5E6FFD5ECCE
:100720002EF0E55202C5E6FFD5EC2EF0E552020EA2
:10073000DE6EDD6ADECF10F0DDCF11F0020EDBCF12
:1007400012F0030EDBCF13F01250105C135011584F
:100750001AE2DECF10F0DDCF11F0020E105E000EB7
:10076000115AFA0EDB501024E96EFB0EDB501120FB
:10077000EA6EEF50E66ED5EC2EF0E552DF2A010E60
:1007800001E3DB2AD7D78A80040EDB50106E050EFA
:10079000E15C03E200D0E16AE552E16E1050E552FF
:1007A000E7CFD9FF1200D9CFE6FFE1CFD9FF0B0E7B
:1007B000E1260A0EDB6A8A90FC0EDBCF10F0FD0EFC
:1007C000DBCF11F011C010F0116A0F0E1016000EE1
:1007D0001116300E10240501016FFF0EE76EFC0E9E
:1007E000DBCF10F0FD0EDBCF11F0E7501016116AD1
:1007F00010C002F501C5E6FFD5EC2EF0E55202C5AA
:10080000E6FFD5EC2EF0E552020EF36E040EF3CFA8
:10081000DBFF050EDB6ADE6ADD6ADECF10F0DDCFBE
:1008200011F0F80EDBCF12F0F90EDBCF13F01250FF
:10083000105C1350115858E2060EDB6A070EDB6A93
:10084000080EDB6A090EDB6A020EDB6A030EDB6A46
:10085000020EDBCF10F0030EDBCF11F0040E105CA4
:10086000000E11581EE2F3EC2EF0E66ED950060F82
:10087000106EDACF11F0020EDB501024E96E030E79
:10088000DB501120EA6EE552E750EF6E020EDB2AD4
:10089000030E01E3DB2A040EDB2A050E01E3DB2A4B
:1008A000D7D7DECF10F0DDCF11F0020ED890103682
:1008B0001136E806FBE1FA0EDB501024E96EFB0E60
:1008C000DB501120EA6E060EDBCFEEFF070EDBCF0A
:1008D000EEFF080EDBCFEEFF090EDBCFEEFFDF2AC7
:1008E000010E01E3DB2A99D78A800A0EDB50106ED5
:1008F0000B0EE15C03E200D0E16AE552E16E1050BC
:10090000E552E7CFD9FF1200D9CFE6FFE1CFD9FFFB
:100910000D0EE126F80EDBCF10F0F90EDBCF11F053
:10092000020ED89010361136E806FBE1020E1026B2
:10093000000E11220A0E10C0DBFF0B0E11C0DBFFF0
:100940000C0EDB6A8A90FC0EDBCF10F0FD0EDBCFC5
:1009500011F011C010F0116A0F0E1016000E1116D2
:10096000200E10240501016FFF0EE76EFC0EDBCF99
:1009700010F0FD0EDBCF11F0E7501016116A10C019
:1009800002F501C5E6FFD5EC2EF0E55202C5E6FF03
:10099000D5EC2EF0E552020EF36E040EF3CFDBFF22
:1009A000050EDB6ADE6ADD6ADECF10F0DDCF11F006
:1009B000F80EDBCF12F0F90EDBCF13F01250105C03
:1009C0001350115868E2DECF10F0DDCF11F0020EA7
:1009D000D89010361136E806FBE1FA0EDB501024F1
:1009E000E96EFB0EDB501120EA6E060EEECFDBFF48
:1009F000070EEECFDBFF080EEECFDBFF090EEECFCA
:100A0000DBFF020EDB6A030EDB6A020EDBCF10F0A7
:100A1000030EDBCF11F0040E105C000E115836E20D
:100A2000D950060F106EDACF11F0020EDB501024F1
:100A3000E96E030EDB501120EA6EEF50E66E040EF5
:100A4000DBCFE9FF050EDBCFEAFF010EE926050E3D
:100A5000EA22E552E750EF6E040EDBCFE9FF050E08
:100A6000DBCFEAFF010EE926050EEA22EF50E66E23
:100A7000D5EC2EF0E552020EDB2A030E01E3DB2A51
:100A8000040EDB2A050E01E3DB2ABFD7DF2A010EA5
:100A900001E3DB2A89D78A800C0EDB50106E0D0E25
:100AA000E15C03E200D0E16AE552E16E1050E552EC
:100AB000E7CFD9FF1200D9CFE6FFE1CFD9FF050E6E
:100AC000E126040EDB6A80C0DFFF010E81C0DBFF80
:100AD000020E82C0DBFF030E83C0DBFFFC0EDBCF08
:100AE000E9FFFD0EDBCFEAFFEF501F0B106ED9CFF1
:100AF000E9FFDACFEAFF10501F0BF36EE00EEF14A0
:100B0000F310EF6EFC0EDBCFE9FFFD0EDBCFEAFF4B
:100B1000EF50200B01E0010E106ED9CFE9FFDACFC4
:100B2000EAFF1050010BF36EF346F346F346F3462B
:100B3000F346DF0EEF14F310EF6EFC0EDBCFE9FF90
:100B4000FD0EDBCFEAFFEF50400B01E0010E106E0F
:100B5000D9CFE9FFDACFEAFF1050010BF36EF3466D
:100B6000F346F346F346F346F346BF0EEF14F31095
:100B7000EF6EFC0EDBCFE9FFFD0EDBCFEAFFEF509F
:100B8000800B01E0010E106ED9CFE9FFDACFEAFF4A
:100B9000EE521050010BF36EFE0EEF14F310EF6ED9
:100BA000FC0EDBCFE9FFFD0EDBCFEAFFEE52EF508C
:100BB000030B106ED9CFE9FFDACFEAFFEE521050E7
:100BC000030BF36EF346F90EEF14F310EF6EFC0E09
:100BD000DBCFE9FFFD0EDBCFEAFFEE52EF50040B57
:100BE00001E0010E106ED9CFE9FFDACFEAFFEE5235
:100BF0001050010BF36EF346F346F346F346EF0E47
:100C0000EF14F310EF6EFC0EDBCFE9FFFD0EDBCF30
:100C1000EAFFEE52EF50080B01E0010E106ED9CF43
:100C2000E9FFDACFEAFFEE52EE521050010BF36EFD
:100C3000FE0EEF14F310EF6EFC0EDBCFE9FFFD0E9E
:100C4000DBCFEAFFEE52EF50100B01E0010E106E09
:100C5000D9CFE9FFDACFEAFFEE52EE521050010B86
:100C6000F36EF346FD0EEF14F310EF6EFC0EDBCFC8
:100C7000E9FFFD0EDBCFEAFFEE52EF50200B01E063
:100C8000010E106ED9CFE9FFDACFEAFFEE52EE5235
:100C90001050010BF36EF346F346FB0EEF14F31006
:100CA000EF6EFC0EDBCFE9FFFD0EDBCFEAFFEE526D
:100CB000EF50400B01E0010E106ED9CFE9FFDACF03
:100CC000EAFFEE52EE521050010BF36EF346F3467C
:100CD000F346F70EEF14F310EF6EFC0EDBCFE9FFD7
:100CE000FD0EDBCFEAFFEE52EF50800B01E0010E6C
:100CF000106ED9CFE9FFDACFEAFFEE52EE52105074
:100D0000010BF36EF346F346F346F346EF0EEF1492
:100D1000F310EF6EFC0EDBCFE9FFFD0EDBCFEAFF39
:100D2000EE52EE52EF500F0B106ED9CFE9FFDACF33
:100D3000EAFFEE52EE52EE5210500F0BF36EF346F6
:100D4000F346F346F3460F0EEF14F310EF6ED9CFD0
:100D5000E9FFDACFEAFFEECFE6FFEECFE6FFEECF18
:100D6000E6FFEFCFE6FF000EE66EE66AFE0EDBCF93
:100D7000E6FF52EC01F0106E070EE15E1050E76ED8
:100D8000040EE7CFDBFFDB5002E0FF0E03D0040EC2
:100D9000DB5000D0106E050EE15C02E2E16AE55224
:100DA000E16E1050E552E7CFD9FF1200D9CFE6FF30
:100DB000E1CFD9FF040EE12680C0DFFF010E81C024
:100DC000DBFF020E82C0DBFF030E83C0DBFFD9CF47
:100DD000E9FFDACFEAFFEF501F0B106EFD0EDBCFFD
:100DE000E9FFFE0EDBCFEAFF10501F0BF36EE00EA3
:100DF000EF14F310EF6ED9CFE9FFDACFEAFFEF502F
:100E0000200B01E0010E106EFD0EDBCFE9FFFE0EA0
:100E1000DBCFEAFF1050010BF36EF346F346F346C7
:100E2000F346F346DF0EEF14F310EF6ED9CFE9FF70
:100E3000DACFEAFFEF50400B01E0010E106EFD0E1D
:100E4000DBCFE9FFFE0EDBCFEAFF1050010BF36EA4
:100E5000F346F346F346F346F346F346BF0EEF146C
:100E6000F310EF6ED9CFE9FFDACFEAFFEE52EF5081
:100E7000010B106EFD0EDBCFE9FFFE0EDBCFEAFFAC
:100E80001050010BF36EF346F346F346F346F34678
:100E9000F346F3467F0EEF14F310EF6ED9CFE9FF60
:100EA000DACFEAFFEE52EF50060BE842106EFD0E6D
:100EB000DBCFE9FFFE0EDBCFEAFFEE521050030B53
:100EC000F36EFC0EEF14F310EF6ED9CFE9FFDACF1B
:100ED000EAFFEE52EF50100B01E0010E106EFD0E16
:100EE000DBCFE9FFFE0EDBCFEAFFEE521050010B25
:100EF000F36EF346F346FB0EEF14F310EF6ED9CF0B
:100F0000E9FFDACFEAFFEE52EE52EF50010B106E1E
:100F1000FD0EDBCFE9FFFE0EDBCFEAFFEE521050F5
:100F2000010BF36EF346F346F346F70EEF14F3109E
:100F3000EF6ED9CFE9FFDACFEAFFEE52EE52EF5073
:100F4000020B01E0010E106EFD0EDBCFE9FFFE0E7D
:100F5000DBCFEAFFEE521050010BF36EF346F3467F
:100F6000F346F346EF0EEF14F310EF6ED9CFE9FF1F
:100F7000DACFEAFFEE52EE52EF50040B01E0010E21
:100F8000106EFD0EDBCFE9FFFE0EDBCFEAFFEE5267
:100F90001050010BF36EF346F346F346F346F34667
:100FA000DF0EEF14F310EF6ED9CFE9FFDACFEAFFCF
:100FB000EE52EE52EF50080B01E0010E106EFD0EE6
:100FC000DBCFE9FFFE0EDBCFEAFFEE521050010B44
:100FD000F36EF346F346F346F346F346F346BF0E8D
:100FE000EF14F310EF6ED9CFE9FFDACFEAFFEE523C
:100FF000EE52EF50100B01E0010E106EFD0EDBCF34
:10100000E9FFFE0EDBCFEAFFEE521050010BF36E4C
:10101000F346F346F346F346F346F346F3467F0EB4
:10102000EF14F310EF6ED9CFE9FFDACFEAFFEE52FB
:10103000EE52EE52EF50F00BE842E842E842E8424E
:10104000106EFD0EDBCFE9FFFE0EDBCFEAFFEE52A6
:10105000EE5210500F0BF36EF00EEF14F310EF6E14
:10106000000E106E040EE15C03E200D0E16AE5526E
:10107000E16E1050E552E7CFD9FF1200D9CFE6FF5D
:10108000E1CFD9FF020EE126DF6A010EDB6AD9CF7C
:10109000E6FFDACFE6FF030EE66EE66AFE0EDBCF72
:1010A000E6FF38EC00F0106E050EE15E1050E76EC2
:1010B000010EE7CFDBFFDB5002E0FF0E20D0000E79
:1010C000DF90DF92DF94FD0EDB50DF12DFCFE6FF13
:1010D000030EE66EE66AFE0EDBCFE6FF7BEC00F069
:1010E000E552E552E552E552E76E010EE7CFDBFF30
:1010F000DB5002E0FE0E03D0010EDB5000D0106E7C
:10110000020EE15C02E2E16AE552E16E1050E55246
:10111000E7CFD9FF1200D9CFE6FFE1CFD9FF030E09
:10112000E126DF6A1E0E0001FC6FFD6B010EDB6A1B
:10113000020EDB6AD950010FE66E000EDA20E66E71
:10114000FCC0E6FFFDC0E6FFFE0EDBCFE6FFD4EC01
:1011500001F0106E050EE15E1050DF6EDF5002E010
:10116000FF0E2DD0FC0EDBCF10F0FD0EDBCF11F00B
:101170001F0E1016FF0E1116D950010FE96EDACFAF
:10118000EAFF1050EE121150ED12010EDBCFE6FF18
:10119000020EDBCFE6FFFCC0E6FFFDC0E6FFFE0E61
:1011A000DBCFE6FF60EC02F0106E050EE15E105042
:1011B000DF6EDF5002E0FE0E02D0DF5000D0106E76
:1011C000030EE15C02E2E16AE552E16E1050E55285
:1011D000E7CFD9FF1200D9CFE6FFE1CFD9FF050E47
:1011E000E126040EDB6A500E0001FC6FFD6BDE6A27
:1011F000DE6ADE6ADD6ADD52DD52D9CFE6FFDACF84
:10120000E6FFFCC0E6FFFDC0E6FFFE0EDBCFE6FF1B
:1012100038EC00F0106E050EE15E1050E76E040E23
:10122000E7CFDBFFDB5002E0FF0E1ED0FC0EDB50F1
:10123000170BDF12DFCFE6FFFCC0E6FFFDC0E6FFC5
:10124000FE0EDBCFE6FF7BEC00F0E552E552E55207
:10125000E552E76E040EE7CFDBFFDB5002E0FE0E47
:1012600003D0040EDB5000D0106E050EE15C02E2EC
:10127000E16AE552E16E1050E552E7CFD9FF120066
:10128000D9CFE6FFE1CFD9FF050EE126040EDB6AD8
:101290000001070EFC6F0E0EFD6FDE6ADE6ADE6A6D
:1012A000DD6ADD52DD52D950030FE66E000EDA2002
:1012B000E66EFCC0E6FFFDC0E6FFFE0EDBCFE6FFFC
:1012C00038EC00F0106E050EE15E1050E76E040E73
:1012D000E7CFDBFFDB5002E0FF0E3ED0FD0EDB5020
:1012E000106ED9CFE9FFDACFEAFFEE52EE52EE529E
:1012F0001050010BF36EFE0EEF14F310EF6EFC0EA8
:10130000DB50106ED9CFE9FFDACFEAFFEE52EE5292
:10131000EE521050010BF36EF346FD0EEF14F31076
:10132000EF6E030EDBCFE6FFFCC0E6FFFDC0E6FF7D
:10133000FE0EDBCFE6FF7BEC00F0E552E552E55216
:10134000E552E76E040EE7CFDBFFDB5002E0FE0E56
:1013500003D0040EDB5000D0106E050EE15C02E2FB
:10136000E16AE552E16E1050E552E7CFD9FF120075
:10137000D9CFE6FFE1CFD9FF030EE126DF6A1E0ECB
:101380000001FC6FFD6B010EDB6A020EDB6AD950B7
:10139000010FE66E000EDA20E66EFCC0E6FFFDC02F
:1013A000E6FFFE0EDBCFE6FFD4EC01F0106E050E7B
:1013B000E15E1050DF6EDF5002E0FF0E2FD0FC0E1A
:1013C000DBCF10F0FD0EDBCF11F01F0E1016FF0E5D
:1013D0001116101E111ED950010FE96EDACFEAFF67
:1013E0001050EE161150ED16010EDBCFE6FF020E87
:1013F000DBCFE6FFFCC0E6FFFDC0E6FFFE0EDBCF65
:10140000E6FF60EC02F0106E050EE15E1050DF6E3C
:10141000DF5002E0FE0E02D0DF5000D0106E030E4F
:10142000E15C02E2E16AE552E16E1050E552E7CF7D
:10143000D9FF1200D9CFE6FFE1CFD9FF030EE12695
:10144000DF6A1C0E0001FC6FFD6B010EDB6A020EF1
:10145000DB6A1F0EF36E010EF3CFDBFF020EDB68BB
:10146000FC0EDB1C106EFD0EDB1C116ED950010F43
:10147000E96EDACFEAFF1050EE161150ED16010EAC
:10148000DBCFE6FF020EDBCFE6FFFCC0E6FFFDC0D0
:10149000E6FFFE0EDBCFE6FF60EC02F0106E050EFD
:1014A000E15E1050DF6EDF5002E0FE0E02D0DF5032
:1014B00000D0106E030EE15C02E2E16AE552E16EDB
:1014C0001050E552E7CFD9FF1200D9CFE6FFE1CFA8
:1014D000D9FF020EE126DF6A010EDB6A1B0E000156
:1014E000FC6FFD6BD950010FE66E000EDA20E66E40
:1014F000FCC0E6FFFDC0E6FFFE0EDBCFE6FF38ECEA
:1015000000F0106E050EE15E1050DF6EDF5002E05D
:10151000FF0E20D0200EF36E010EDBCFF4FFF35050
:10152000F45C04E3010EDB5040080AE1FC0EDBCF63
:10153000E9FFFD0EDBCFEAFF010EDBCFEFFF08D0A6
:10154000FC0EDBCFE9FFFD0EDBCFEAFF410EEF6EB5
:10155000DF5000D0106E020EE15C02E2E16AE5525B
:10156000E16E1050E552E7CFD9FF1200D9CFE6FF68
:10157000E1CFD9FF020EE126DF6A010EDB6A1A0E07
:101580000001FC6FFD6BD950010FE66E000EDA20F2
:10159000E66EFCC0E6FFFDC0E6FFFE0EDBCFE6FF19
:1015A00038EC00F0106E050EE15E1050DF6EDF507B
:1015B00002E0FF0E20D0200EF36E010EDBCFF4FF11
:1015C000F350F45C04E3010EDB5040080AE1FC0E2A
:1015D000DBCFE9FFFD0EDBCFEAFF010EDBCFEFFF34
:1015E00008D0FC0EDBCFE9FFFD0EDBCFEAFF410E9A
:1015F000EF6EDF5000D0106E020EE15C02E2E16A95
:10160000E552E16E1050E552E7CFD9FF1200D9CF75
:10161000E6FFE1CFD9FF020EE126DF6A010EDB6AA9
:10162000190E0001FC6FFD6BD950010FE66E000E24
:10163000DA20E66EFCC0E6FFFDC0E6FFFE0EDBCF63
:10164000E6FF38EC00F0106E050EE15E1050DF6E24
:10165000DF5002E0FF0E0BD0FC0EDBCFE9FFFD0EEA
:10166000DBCFEAFF010EDBCFEFFFDF5000D0106EC3
:10167000020EE15C02E2E16AE552E16E1050E552D1
:10168000E7CFD9FF1200D9CFE6FFE1CFD9FF020E95
:10169000E126DF6A010EDB6A180E0001FC6FFD6BAC
:1016A000D950010FE66E000EDA20E66EFCC0E6FFB0
:1016B000FDC0E6FFFE0EDBCFE6FF38EC00F0106E5B
:1016C000050EE15E1050DF6EDF5002E0FF0E2CD001
:1016D0004B0EF36E010EDBCFF4FFF350F45C1AE215
:1016E000200EF36E010EDBCFF4FFF350F45C08E341
:1016F000400EF36E010EDBCFF4FFF350F45C0AE30F
:10170000FC0EDBCFE9FFFD0EDBCFEAFF010EDBCFE6
:10171000EFFF08D0FC0EDBCFE9FFFD0EDBCFEAFFC9
:101720004B0EEF6EDF5000D0106E020EE15C02E255
:10173000E16AE552E16E1050E552E7CFD9FF1200A1
:10174000D9CFE6FFE1CFD9FF6D0EE1261C0EDB6A93
:101750006A0EDB6A6B0EDB6A6C0EDB6AFD0EDBCF9A
:10176000FCF00001FD6BFCBFFD690C0EFD03F3CF27
:10177000FDF0FC03F3CFFCF0F450FD27500EFC27E6
:10178000000EFD23030EE66EE66AD9CFE6FFDACF40
:10179000E6FFFCC0E6FFFDC0E6FFFE0EDBCFE6FF86
:1017A000D3EC03F0106E070EE15E1050E76E1C0ED6
:1017B000E7CFDBFFDB5002E0FF0E42D2D9CFE9FFDB
:1017C000DACFEAFF100EEECFDBFF110EEECFDBFF1C
:1017D000120EEECFDBFF130EEECFDBFFD950100F52
:1017E000E96EDACFEAFFEF50800B02E1FE0E28D25D
:1017F000FB0EDBCFE9FFFC0EDBCFEAFF040EE92690
:10180000000EEA22EF500F0BE66E63EC23F0E55278
:101810000C0E04C0DBFF0D0E05C0DBFF0E0E06C074
:10182000DBFF0F0E07C0DBFFF50EDBCF10F0F60E6F
:10183000DBCF11F0F70EDBCF12F0F80EDBCF13F099
:10184000D9500C0FE96EDACFEAFF1050EE5C115060
:10185000EE581250EE581350EE5802E2FD0EF0D141
:10186000D950040FE96EDACFEAFF140EEECFDBFF9A
:10187000150EEECFDBFF160EEECFDBFF170EEECF11
:10188000DBFFD950080FE96EDACFEAFF180EEECF72
:10189000DBFF190EEECFDBFF1A0EEECFDBFF1B0EC8
:1018A000EECFDBFFD950180FE96EDACFEAFFEE5228
:1018B000EF500F0B106E10C011F0106A180EDB50B5
:1018C00000011010FC6F11C0FDF0040EFD27FB0E8F
:1018D000DBCFE9FFFC0EDBCFEAFFEE52EE52EE5219
:1018E000EF501C0BE842E842E76E1D0EE7CFDBFF2E
:1018F000FB0EDBCFE9FFFC0EDBCFEAFFEFCF10F0F2
:10190000FB0EDBCFE9FFFC0EDBCFEAFFEE52EF5020
:101910001F0B080DF3501010E76E1E0EE7CFDBFF14
:10192000FB0EDBCFE9FFFC0EDBCFEAFFEE52EF5000
:10193000E00B106EFB0EDBCFE9FFFC0EDBCFEAFF06
:10194000020EE926000EEA22EF501F0B080DF3509D
:101950001010E76E1F0EE7CFDBFFFB0EDBCFE9FFBA
:10196000FC0EDBCFEAFF020EE926000EEA22EF5062
:10197000E00B116EFB0EDBCFE9FFFC0EDBCFEAFFC5
:10198000EE52EE52EE52EF50030B080DF3CF10F073
:10199000FB0EDBCFE9FFFC0EDBCFEAFFEE52EE528F
:1019A000EE52EF50200B01E0010E040DF350101029
:1019B0001110E76E200EE7CFDBFFFB0EDBCFE9FF58
:1019C000FC0EDBCFEAFF040EE926000EEA22210E10
:1019D000EFCFDBFFFB0EDBCFE9FFFC0EDBCFEAFF37
:1019E000050EE926000EEA22220EEFCFDBFFFB0EEA
:1019F000DBCFE9FFFC0EDBCFEAFF060EE926000E87
:101A0000EA22230EEFCFDBFFFB0EDBCFE9FFFC0E5C
:101A1000DBCFEAFF070EE926000EEA22240EEFCF05
:101A2000DBFF690EDB6ADBCF10F0116A126A136A02
:101A3000D950F50FE96EFF0EDA20EA6EEE50105C19
:101A4000EE501158EE501258EE50135823E2690E22
:101A5000DB50E76EF90EDBCFE9FFFA0EDBCFEAFFD2
:101A6000E750E926000EEA22EF50E66ED9501D0F2E
:101A7000106EDACF11F0690EDB50080F0F01102441
:101A8000E96E000E1120EA6EE552E750EF6E690E26
:101A9000DB2AC9D7F50EDBCF10F0F60EDBCF11F045
:101AA000F70EDBCF12F0F80EDBCF13F0030E10169B
:101AB000116A126A136A105011101210131066E0A6
:101AC000040E146E156A166A176AF50EDBCF04F061
:101AD000F60EDBCF05F0F70EDBCF06F0F80EDBCF0E
:101AE00007F0040E096E0A6A0B6A0C6AB1EC2EF05C
:101AF0000050145C106E01501558116E02501658AB
:101B0000126E03501758136E6A0E10C0DBFF6B0E77
:101B100011C0DBFF080E106E116A126A136AD950E9
:101B2000F50FE96EFF0EDA20EA6EEE501026EE5049
:101B30001122EE501222EE501322690E10C0DBFF6C
:101B40006C0EDB6ADBCF10F06A0EDBCF11F06B0E90
:101B5000DBCF12F01150105C000E125417E2D95076
:101B60001D0F106EDACF11F06C0EDBCFE6FF690EA1
:101B7000DB50080FE552E7240F011024E96E000E38
:101B80001120EA6EEF6A6C0EDB2ADCD7080E106EAD
:101B9000116A126A136AD950F50FE96EFF0EDA2046
:101BA000EA6EEE501026EE501122EE501222EE5048
:101BB00013226A0EDBCF14F06B0EDBCF15F0166A22
:101BC000176A145010261550112216501222175061
:101BD000132210C0E6FF11C0E6FFD9501D0FE66EBC
:101BE000000EDA20E66EFCC0E6FFFDC0E6FFFE0E4A
:101BF000DBCFE6FF54EC03F0186E070EE15E1850E1
:101C0000E76E1C0EE7CFDBFFDB5002E0FC0E18D0C6
:101C1000F40EDBCFE6FFFD0EDBCFE6FFFE0EDBCFE3
:101C2000E6FF1AD8E552E552E552E76E1C0EE7CF03
:101C3000DBFFDB5002E0FB0E03D01C0EDB5000D0BC
:101C4000106E6D0EE15C02E2E16AE552E16E105049
:101C5000E552E7CFD9FF1200D9CFE6FFE1CFD9FF98
:101C6000050EE126040EDB6AFD0EDBCFFCF0000161
:101C7000FD6BFCBFFD690C0EFD03F3CFFDF0FC0313
:101C8000F3CFFCF0F450FD27500EFC27000EFD238F
:101C9000010EFC27000EFD23DE6ADE6ADE6ADD6AC5
:101CA000DD52DD52010EDB80FC0EDB5002E0010E46
:101CB000DB82010EDBCFE6FFFCC0E6FFFDC0E6FFE6
:101CC000FE0EDBCFE6FF7BEC00F0E552E552E5527D
:101CD000E552E76E040EE7CFDBFFDB5002E0FF0EBC
:101CE00003D0040EDB5000D0106E050EE15C02E262
:101CF000E16AE552E16E1050E552E7CFD9FF1200DC
:101D0000D9CFE6FFE1CFD9FF050EE126DF6A010E4C
:101D1000DB6A020EDB6A030EDB6A040EDB6AFD0E71
:101D2000DBCFFCF00001FD6BFCBFFD690C0EFD0379
:101D3000F3CFFDF0FC03F3CFFCF0F450FD27540E7D
:101D4000FC27000EFD23D950010FE66E000EDA20AD
:101D5000E66EFCC0E6FFFDC0E6FFFE0EDBCFE6FF51
:101D600038EC00F0106E050EE15E1050DF6EDF50B3
:101D700002E0FF0E0FD0010EDB50170BE66EFB0EDC
:101D8000DBCFE9FFFC0EDBCFEAFFE552E750EF6E59
:101D9000DF5000D0106E050EE15C02E2E16AE55210
:101DA000E16E1050E552E7CFD9FF1200D9CFE6FF20
:101DB000E1CFD9FF050EE126DF6A410E0001FC6F7D
:101DC000FD6B010EDB6A020EDB6A030EDB6A040E9A
:101DD000DB6A020EDB80DBCFE6FFFCC0E6FFFDC066
:101DE000E6FFFE0EDBCFE6FF7BEC00F0E552E552AE
:101DF000E552E552DF6EDF50106E050EE15C03E246
:101E000000D0E16AE552E16E1050E552E7CFD9FF0C
:101E10001200D9CFE6FFE1CFD9FF2A0EE126100E3E
:101E2000DB6A1D0EDB6A400E0001FC6FFD6B030ECA
:101E3000E66EE66AD950110FE66E000EDA20E66E05
:101E4000FCC0E6FFFDC0E6FFFE0EDBCFE6FFD3ECF5
:101E500003F0106E070EE15E1050E76E100EE7CF34
:101E6000DBFFDB5002E0FF0E28D1D9CFE9FFDACF4C
:101E7000EAFF110EDBCFEEFF120EDBCFEEFF130EEB
:101E8000DBCFEEFF140EDBCFEEFFD950150FE96E5E
:101E9000DACFEAFF040EEECFDBFF050EEECFDBFF5D
:101EA000060EEECFDBFF070EEECFDBFFD950190F8A
:101EB000E96EDACFEAFF080EEECFDBFF090EEECFB8
:101EC000DBFF0A0EEECFDBFF0B0EEECFDBFFD950B0
:101ED000080FE96EDACFEAFFEE52EF500F0B106EEB
:101EE00010C011F0106A080EDB5000011010FC6FDA
:101EF00011C0FDF0040EFD27080EF36E1D0EF3CF8A
:101F0000DBFFD9CFE9FFDACFEAFFEF50200B0AE081
:101F1000040E106E1D0EDBCFE7FF1050E7261D0EDE
:101F2000E7CFDBFF1D0EDBCFE6FFE66AD9501E0FC1
:101F3000E66E000EDA20E66EFCC0E6FFFDC0E6FFAE
:101F4000FE0EDBCFE6FFD9EC02F0106E070EE15E6D
:101F50001050E76E100EE7CFDBFFDB5002E0FE0E05
:101F6000ACD01E0EDB50E76E0C0EE7CFDBFF1F0E72
:101F7000DB50E76E0D0EE7CFDBFF200EDB50E76E88
:101F80000E0EE7CFDBFF210EDB50E76E0F0EE7CF23
:101F9000DBFFFC0EDBCFE9FFFD0EDBCFEAFF0C0E13
:101FA000DBCFEEFF0D0EDBCFEEFF0E0EDBCFEEFF35
:101FB0000F0EDBCFEEFF220EDB50E76E0C0EE7CFED
:101FC000DBFF230EDB50E76E0D0EE7CFDBFF240EA9
:101FD000DB50E76E0E0EE7CFDBFF250EDB50E76E22
:101FE0000F0EE7CFDBFFFC0EDBCFE9FFFD0EDBCFF3
:101FF000EAFF040EE926000EEA220C0EDBCFEEFF0C
:102000000D0EDBCFEEFF0E0EDBCFEEFF0F0EDBCFA4
:10201000EEFFD9CFE9FFDACFEAFFEF50200B2FE038
:10202000260EDB50E76E0C0EE7CFDBFF270EDB50F2
:10203000E76E0D0EE7CFDBFF280EDB50E76E0E0ECE
:10204000E7CFDBFF290EDB50E76E0F0EE7CFDBFF9C
:10205000FC0EDBCFE9FFFD0EDBCFEAFF080EE92621
:10206000000EEA220C0EDBCFEEFF0D0EDBCFEEFFF3
:102070000E0EDBCFEEFF0F0EDBCFEEFF0ED0FC0E11
:10208000DBCFE9FFFD0EDBCFEAFF080EE926000EED
:10209000EA22EE6AEE6AEE6AEE6AFE0EDBCFE6FF39
:1020A00085DEE552E76E100EE7CFDBFFDB5002E086
:1020B000FD0E03D0100EDB5000D0106E2A0EE15C36
:1020C00002E2E16AE552E16E1050E552E7CFD9FF36
:1020D0001200D9CFE6FFE1CFD9FF050EE126DF6A76
:1020E000010EDB6A020EDB6A030EDB6A040EDB6A9A
:1020F000440E0001FC6FFD6BD950010FE66E000E1F
:10210000DA20E66EFCC0E6FFFDC0E6FFFE0EDBCF88
:10211000E6FF38EC00F0106E050EE15E1050DF6E49
:10212000DF5002E0FF0E0FD0010EDB500F0BE66E0A
:10213000FC0EDBCFE9FFFD0EDBCFEAFFE552E750F7
:10214000EF6EDF5000D0106E050EE15C02E2E16A36
:10215000E552E16E1050E552E7CFD9FF1200D9CF1A
:10216000E6FFE1CFD9FF050EE126DF6A400E000150
:10217000FC6FFD6B010EDB6A020EDB6A030EDB6A8D
:10218000040EDB6AD950010FE66E000EDA20E66E0F
:10219000FCC0E6FFFDC0E6FFFE0EDBCFE6FF38EC3D
:1021A00000F0106E050EE15E1050DF6EDF5002E0B1
:1021B000FF0E22D0FD0EDB500F0B106E010EDBCF99
:1021C000E7FF1050E712010EE7CFDBFFDBCFE6FFA2
:1021D000FCC0E6FFFDC0E6FFFE0EDBCFE6FF7BECBA
:1021E00000F0E552E552E552E552DF6EDF5002E0C5
:1021F000FE0E02D0DF5000D0106E050EE15C02E250
:10220000E16AE552E16E1050E552E7CFD9FF1200C6
:10221000D9CFE6FFE1CFD9FF050EE126DF6A400EF8
:102220000001FC6FFD6B010EDB6A020EDB6A030E20
:10223000DB6A040EDB6AD950010FE66E000EDA206D
:10224000E66EFCC0E6FFFDC0E6FFFE0EDBCFE6FF5C
:1022500038EC00F0106E050EE15E1050DF6EDF50BE
:1022600002E0FF0E23D0FD0EDB500F0BE81C106EBA
:10227000010EDBCFE7FF1050E716010EE7CFDBFFC3
:10228000DBCFE6FFFCC0E6FFFDC0E6FFFE0EDBCFC6
:10229000E6FF7BEC00F0E552E552E552E552DF6ED9
:1022A000DF5002E0FE0E02D0DF5000D0106E050EAF
:1022B000E15C02E2E16AE552E16E1050E552E7CFDF
:1022C000D9FF1200D9CFE6FFE1CFD9FF050EE126F5
:1022D000DF6A010EDB6A020EDB6A030EDB6A040EA4
:1022E000DB6A440E0001FC6FFD6BD950010FE66EF6
:1022F000000EDA20E66EFCC0E6FFFDC0E6FFFE0E33
:10230000DBCFE6FF38EC00F0106E050EE15E1050FA
:10231000DF6EDF5002E0FF0E18D0010EDB96DBCF40
:10232000E6FFFCC0E6FFFDC0E6FFFE0EDBCFE6FFEA
:102330007BEC00F0E552E552E552E552DF6EDF50EE
:1023400002E0FE0E02D0DF5000D0106E050EE15C00
:1023500002E2E16AE552E16E1050E552E7CFD9FFA3
:102360001200D9CFE6FFE1CFD9FF050EE126040E1A
:10237000DB6AFD0EDBCFFCF00001FD6BFCBFFD69ED
:102380000C0EFD03F3CFFDF0FC03F3CFFCF0F45093
:10239000FD27540EFC27000EFD23DE6ADE6ADE6A8E
:1023A000DD6ADD52DD52D9CFE6FFDACFE6FFFCC0B1
:1023B000E6FFFDC0E6FFFE0EDBCFE6FF38EC00F0E7
:1023C000106E050EE15E1050E76E040EE7CFDBFFE6
:1023D000DB5002E0FF0E1CD0000EDF98DFCFE6FFDF
:1023E000FCC0E6FFFDC0E6FFFE0EDBCFE6FF7BECA8
:1023F00000F0E552E552E552E552E76E040EE7CFF4
:10240000DBFFDB5002E0FE0E03D0040EDB5000D0F9
:10241000106E050EE15C02E2E16AE552E16E1050D9
:10242000E552E7CFD9FF1200D9CFE6FFE1CFD9FFC0
:10243000050EE126040EDB6ADE6ADE6ADE6ADD6A0C
:10244000DD52DD52FD0EDBCFFCF00001FD6BFCBF69
:10245000FD690C0EFD03F3CFFDF0FC03F3CFFCF0A0
:10246000F450FD27500EFC27000EFD23010EFC2723
:10247000000EFD23010EDB80DBCFE6FFFCC0E6FF94
:10248000FDC0E6FFFE0EDBCFE6FF7BEC00F0E55281
:10249000E552E552E552E76E040EE7CFDBFFDB5075
:1024A000106E050EE15C03E200D0E16AE552E16ED8
:1024B0001050E552E7CFD9FF1200D9CFE6FFE1CFA8
:1024C000D9FF050EE126DF6AFD0EDB5002E19C0E0E
:1024D00043D0010EDB6A020EDB6A030EDB6A040ED8
:1024E000DB6AFD0EDBCFFCF00001FD6BFCBFFD697C
:1024F0000C0EFD03F3CFFDF0FC03F3CFFCF0F45022
:10250000FD27540EFC27000EFD23D950010FE66E67
:10251000000EDA20E66EFCC0E6FFFDC0E6FFFE0E10
:10252000DBCFE6FF38EC00F0106E050EE15E1050D8
:10253000DF6EDF5002E0FF0E0FD0010EDB500F0BFD
:10254000E66EFB0EDBCFE9FFFC0EDBCFEAFFE552C8
:10255000E750EF6EDF5000D0106E050EE15C02E236
:10256000E16AE552E16E1050E552E7CFD9FF120063
:10257000D9CFE6FFE1CFD9FFE652DF6AFC0EDBCF11
:10258000E6FFFD0EDBCFE6FF200EE66EE66AFE0EEE
:10259000DBCFE6FFC6EC00F0106E050EE15E1050DA
:1025A000DF6EDF5000D0E552E552E7CFD9FF1200D1
:1025B000D9CFE6FFE1CFD9FFE652DF6AFC0EDBCFD1
:1025C000E6FFFD0EDBCFE6FF280EE66EE66AFE0EA6
:1025D000DBCFE6FFC6EC00F0106E050EE15E10509A
:1025E000DF6EDF5000D0E552E552E7CFD9FF120091
:1025F000D9CFE6FFE1CFD9FF050EE126DF6AFD0E58
:10260000DB5002E19C0E56D0FD0EDBCFFCF000014A
:10261000FD6BFCBFFD690C0EFD03F3CFFDF0FC0369
:10262000F3CFFCF0F450FD27500EFC27000EFD23E5
:10263000010EDB6A020EDB6A030EDB6A040EDB6A44
:10264000D950010FE66E000EDA20E66EFCC0E6FF00
:10265000FDC0E6FFFE0EDBCFE6FF38EC00F0106EAB
:10266000050EE15E1050DF6EDF5002E0FF0E22D05B
:10267000FC0EDB500F0B106E010EDBCFE7FF10508E
:10268000E712010EE7CFDBFFDBCFE6FFFCC0E6FF82
:10269000FDC0E6FFFE0EDBCFE6FF7BEC00F0E5526F
:1026A000E552E552E552DF6EDF5002E0FE0E02D049
:1026B000DF5000D0106E050EE15C02E2E16AE552E7
:1026C000E16E1050E552E7CFD9FF1200D9CFE6FFF7
:1026D000E1CFD9FF050EE126DF6AFD0EDB5002E1F6
:1026E0009C0E57D0FD0EDBCFFCF00001FD6BFCBF54
:1026F000FD690C0EFD03F3CFFDF0FC03F3CFFCF0FE
:10270000F450FD27500EFC27000EFD23010EDB6A5E
:10271000020EDB6A030EDB6A040EDB6AD950010F7E
:10272000E66E000EDA20E66EFCC0E6FFFDC0E6FFB6
:10273000FE0EDBCFE6FF38EC00F0106E050EE15E1A
:102740001050DF6EDF5002E0FF0E23D0FC0EDB5096
:102750000F0BE81C106E010EDBCFE7FF1050E716E1
:10276000010EE7CFDBFFDBCFE6FFFCC0E6FFFDC0DD
:10277000E6FFFE0EDBCFE6FF7BEC00F0E552E55214
:10278000E552E552DF6EDF5002E0FE0E02D0DF5070
:1027900000D0106E050EE15C02E2E16AE552E16EE6
:1027A0001050E552E7CFD9FF1200D9CFE6FFE1CFB5
:1027B000D9FF050EE126DF6AFD0EDB5002E19C0E1B
:1027C0004CD0010EDB6A020EDB6A030EDB6A040EDC
:1027D000DB6AFD0EDBCFFCF00001FD6BFCBFFD6989
:1027E0000C0EFD03F3CFFDF0FC03F3CFFCF0F4502F
:1027F000FD27540EFC27000EFD23D950010FE66E75
:10280000000EDA20E66EFCC0E6FFFDC0E6FFFE0E1D
:10281000DBCFE6FF38EC00F0106E050EE15E1050E5
:10282000DF6EDF5002E0FF0E18D0010EDB96DBCF2B
:10283000E6FFFCC0E6FFFDC0E6FFFE0EDBCFE6FFD5
:102840007BEC00F0E552E552E552E552DF6EDF50D9
:1028500002E0FE0E02D0DF5000D0106E050EE15CEB
:1028600002E2E16AE552E16E1050E552E7CFD9FF8E
:102870001200D9CFE6FFE1CFD9FF6B0EE126DF6A68
:10288000010EDB6A1A0EDB6AFD0EDBCFFCF00001E5
:10289000FD6BFCBFFD690C0EFD03F3CFFDF0FC03E7
:1028A000F3CFFCF0F450FD27500EFC27000EFD2363
:1028B000030EE66EE66AD950020FE66E000EDA20CD
:1028C000E66EFCC0E6FFFDC0E6FFFE0EDBCFE6FFD6
:1028D000D3EC03F0106E070EE15E1050E76E1A0E97
:1028E000E7CFDBFFDB5002E0FF0E9AD1D950020F99
:1028F000E96EDACFEAFF0E0EEECFDBFF0F0EEECF62
:10290000DBFF100EEECFDBFF110EEECFDBFFD95059
:102910000E0FE96EDACFEAFFEF50800B02E0FE0EF9
:102920007FD1D950060FE96EDACFEAFF120EEECF53
:10293000DBFF130EEECFDBFF140EEECFDBFF150E29
:10294000EECFDBFFD9500A0FE96EDACFEAFF160EA1
:10295000EECFDBFF170EEECFDBFF180EEECFDBFF67
:10296000190EEECFDBFFD950160FE96EDACFEAFF72
:10297000EE52EF500F0B106E10C011F0106A160ED1
:10298000DB5000011010FC6F11C0FDF0040EFD279C
:10299000F80EDB50080FDF6ED9500E0FE96EDACF5C
:1029A000EAFFEF50200B02E0040EDF26DF50030B9E
:1029B00007E0040EDF24106EDF50030B105CDF6EA7
:1029C000DF504C0802E24C0EDF6EDFCFE6FFE66A16
:1029D000D9501B0FE66E000EDA20E66EFCC0E6FF53
:1029E000FDC0E6FFFE0EDBCFE6FFD9EC02F0106E75
:1029F000070EE15E1050E76E1A0EE7CFDBFFDB50EB
:102A000002E0FD0E0DD11B0EDB50E76E670EE7CF27
:102A1000DBFF1C0EDB50E76E680EE7CFDBFF1D0E01
:102A2000DB50E76E690EE7CFDBFF1E0EDB50E76E73
:102A30006A0EE7CFDBFFFB0EDBCFE9FFFC0EDBCF3F
:102A4000EAFF670EDBCFEEFF680EDBCFEEFF690E0D
:102A5000DBCFEEFF6A0EDBCFEEFF1F0EDB50E76E23
:102A6000670EE7CFDBFF200EDB50E76E680EE7CF87
:102A7000DBFF210EDB50E76E690EE7CFDBFF220E96
:102A8000DB50E76E6A0EE7CFDBFFFB0EDBCFE9FF23
:102A9000FC0EDBCFEAFF040EE926000EEA22670EE9
:102AA000DBCFEEFF680EDBCFEEFF690EDBCFEEFF74
:102AB0006A0EDBCFEEFFD9500E0FE96EDACFEAFFD8
:102AC000EF50200B5DE0230EDB50E76E670EE7CF83
:102AD000DBFF240EDB50E76E680EE7CFDBFF250E31
:102AE000DB50E76E690EE7CFDBFF260EDB50E76EAB
:102AF0006A0EE7CFDBFFFB0EDBCFE9FFFC0EDBCF7F
:102B0000EAFF080EE926000EEA22670EDBCFEEFF91
:102B1000680EDBCFEEFF690EDBCFEEFF6A0EDBCF78
:102B2000EEFF010EDB6AF80EDB50F36E010EDBCF19
:102B3000F4FFF350F45C23E2D9501B0F106EDACF90
:102B400011F0010EDB500C0F0F011024E96E000E86
:102B50001120EA6EEF50E66E010EDB50E76EF90EC3
:102B6000DBCFE9FFFA0EDBCFEAFFE750E926000EE4
:102B7000EA22E552E750EF6E010EDB2AD4D73CD0B3
:102B8000FB0EDBCFE9FFFC0EDBCFEAFF080EE926E8
:102B9000000EEA22EE6AEE6AEE6AEE6A010EDB6A67
:102BA000F80EDB50F36E010EDBCFF4FFF350F45C54
:102BB00023E2D9501B0F106EDACF11F0010EDB505B
:102BC000080F0F011024E96E000E1120EA6EEF507D
:102BD000E66E010EDB50E76EF90EDBCFE9FFFA0E71
:102BE000DBCFEAFFE750E926000EEA22E552E75084
:102BF000EF6E010EDB2AD4D7FD0EDBCFE6FFFE0E13
:102C0000DBCFE6FF11DCE552E552E76E1A0EE7CFA7
:102C1000DBFFDB5002E0FC0E03D01A0EDB5000D0CD
:102C2000106E6B0EE15C02E2E16AE552E16E10505B
:102C3000E552E7CFD9FF1200D9CFE6FFE1CFD9FFA8
:102C4000E652DF6AFB0EDB50020A44E0030A23E08F
:102C5000010A02E0DF685CD0FD0EDBCFE6FFFE0E6E
:102C6000DBCFE6FF9FEC22F0E552E552DF6EDF504E
:102C700002E0DF504FD0FC0EDBCFE6FFFD0EDBCFD6
:102C8000E6FFFE0EDBCFE6FF85EC1FF0E552E552D6
:102C9000E552DF6E3DD0FD0EDBCFE6FFFE0EDBCF53
:102CA000E6FFBFEC1EF0E552E552DF6EDF5002E0BA
:102CB000DF5030D0FC0EDBCFE6FFFD0EDBCFE6FFB2
:102CC000FE0EDBCFE6FF6BEC1CF0E552E552E55261
:102CD000DF6E1ED0FD0EDBCFE6FFFE0EDBCFE6FF84
:102CE000A5EC1BF0E552E552DF6EDF5002E0DF504D
:102CF00011D0FC0EDBCFE6FFFD0EDBCFE6FFFE0EB4
:102D0000DBCFE6FF7ADBE552E552E552DF6E00D01D
:102D1000DF5000D0E552E552E7CFD9FF1200D9CFFE
:102D2000E6FFE1CFD9FF040EE126D0C0DFFF010EA0
:102D3000D1C0DBFF020ED2C0DBFF030ED3C0DBFF2E
:102D4000D9CFE9FFDACFEAFFEE52EE52EE52EF5062
:102D50001F0B106EFD0EDBCFE9FFFE0EDBCFEAFF8F
:102D600010501F0BF36EF346C10EEF14F310EF6E0D
:102D7000D9CFE9FFDACFEAFFEE52EE52EE52EF5032
:102D8000E00BE842E842E842E842E842106EFD0EFD
:102D9000DBCFE9FFFE0EDBCFEAFFEE521050070B50
:102DA000F36EF80EEF14F310EF6ED9CFE9FFDACF20
:102DB000EAFFEF50200B01E0010E106EFD0EDBCF9D
:102DC000E9FFFE0EDBCFEAFF1050010BF36EFE0EA3
:102DD000EF14F310EF6E000E106E040EE15C03E2D0
:102DE00000D0E16AE552E16E1050E552E7CFD9FF1D
:102DF0001200D9CFE6FFE1CFD9FF050EE126DF6A49
:102E0000FD0EDB5002E19C0E90D0010ED0C0DBFF26
:102E1000020ED1C0DBFF030ED2C0DBFF040ED3C015
:102E2000DBFF010EDB9EFB0EDBCFE9FFFC0EDBCFF1
:102E3000EAFFEF503E0BE842106ED950010FE96EE9
:102E4000DACFEAFFEE52EE52EE5210501F0BF36E45
:102E5000E00EEF14F310EF6EFB0EDBCFE9FFFC0E7C
:102E6000DBCFEAFFEE52EF50070B106ED950010F87
:102E7000E96EDACFEAFFEE52EE52EE521050070B37
:102E8000F36EF346F346F346F346F3461F0EEF1494
:102E9000F310EF6EFB0EDBCFE9FFFC0EDBCFEAFF9A
:102EA000EF50010B106ED950010FE96EDACFEAFF37
:102EB0001050010BF36EF346F346F346F346F34628
:102EC000DF0EEF14F310EF6EFD0EDBCFFCF0000110
:102ED000FD6BFCBFFD690C0EFD03F3CFFDF0FC03A1
:102EE000F3CFFCF0F450FD27500EFC27000EFD231D
:102EF000D950010FE96EDACFEAFFEECFE6FFEECF51
:102F0000E6FFEECFE6FFEFCFE6FFFCC0E6FFFDC039
:102F1000E6FFFE0EDBCFE6FF52EC01F0106E070E6F
:102F2000E15E1050DF6EDF5000D0106E050EE15CE8
:102F300002E2E16AE552E16E1050E552E7CFD9FFB7
:102F40001200D9CFE6FFE1CFD9FF050EE126DF6AF7
:102F5000010ED0C0DBFF020ED1C0DBFF030ED2C0DA
:102F6000DBFF040ED3C0DBFF010EDB8EFB0EDBCFDD
:102F7000E9FFFC0EDBCFEAFFEE52EF501F0B106EA5
:102F8000D950010FE96EDACFEAFFEE52EE52EE525F
:102F900010501F0BF36EE00EEF14F310EF6EFB0EEC
:102FA000DBCFE9FFFC0EDBCFEAFFEE52EF50E00B88
:102FB000E842E842E842E842E842106ED950010F88
:102FC000E96EDACFEAFFEE52EE52EE521050070BE6
:102FD000F36EF346F346F346F346F3461F0EEF1443
:102FE000F310EF6EFB0EDBCFE9FFFC0EDBCFEAFF49
:102FF000EF50C00BE842E842E842E842E842E842CB
:10300000106ED950010FE96EDACFEAFFEE52EE52A0
:103010001050030BF36EF346F346F346F346F346C4
:103020009F0EEF14F310EF6EFB0EDBCFE9FFFC0EEB
:10303000DBCFEAFFEF503E0BE842106ED950010F94
:10304000E96EDACFEAFFEE52EE5210501F0BF36E2C
:10305000E00EEF14F310EF6EFB0EDBCFE9FFFC0E7A
:10306000DBCFEAFFEF50010B106ED950010FE96E74
:10307000DACFEAFF1050010BF36EF346F346F34646
:10308000F346F346F346BF0EEF14F310EF6EFD0E5A
:10309000DBCFFCF00001FD6BFCBFFD690C0EFD03F6
:1030A000F3CFFDF0FC03F3CFFCF0F450FD27500EFE
:1030B000FC27000EFD23D950010FE96EDACFEAFF9D
:1030C000EECFE6FFEECFE6FFEECFE6FFEFCFE6FF77
:1030D000FCC0E6FFFDC0E6FFFE0EDBCFE6FF52ECD4
:1030E00001F0106E070EE15E1050DF6EDF50106EC3
:1030F000050EE15C03E200D0E16AE552E16E10509A
:10310000E552E7CFD9FF1200D9CFE6FFE1CFD9FFD3
:10311000040EE126D0C0DFFF010ED1C0DBFF020E9E
:10312000D2C0DBFF030ED3C0DBFFD9CFE9FFDACF7C
:10313000EAFFEF50400B01E0010E106EFD0EDBCFF9
:10314000E9FFFE0EDBCFEAFF1050010BF36EFE0E1F
:10315000EF14F310EF6ED9CFE9FFDACFEAFFEE52AA
:10316000EE52EF501F0B106EFD0EDBCFE9FFFE0E8F
:10317000DBCFEAFF10501F0BF36EF346C10EEF14C6
:10318000F310EF6ED9CFE9FFDACFEAFFEE52EE523D
:10319000EF50600BE842E842E842E842E842106E35
:1031A000FD0EDBCFE9FFFE0EDBCFEAFF1050030B75
:1031B000F36EF346F346F346F346F346F3463F0E0B
:1031C000EF14F310EF6ED9CFE9FFDACFEAFFEE523A
:1031D000EE52EE52EF501F0B106EFD0EDBCFE9FFEB
:1031E000FE0EDBCFEAFFEE5210501F0BF36EE00E27
:1031F000EF14F310EF6ED9CFE9FFDACFEAFFEE520A
:10320000EE52EE52EF50E00BE842E842E842E8426C
:10321000E842106EFD0EDBCFE9FFFE0EDBCFEAFFCA
:10322000EE521050070BF36EF346F346F346F346A7
:10323000F3461F0EEF14F310EF6E000E106E040E27
:10324000E15C03E200D0E16AE552E16E1050E55224
:10325000E7CFD9FF1200D9CFE6FFE1CFD9FF020EA9
:10326000E126DF6A010EDB6AD950010FE66E000E1F
:10327000DA20E66E0C0EE66E0E0EE66EFE0EDBCF6C
:10328000E6FF38EC00F0106E050EE15E1050DF6EC8
:10329000DF5002E0FF0E18D0010EDB80DBCFE6FF2F
:1032A0000C0EE66E0E0EE66EFE0EDBCFE6FF7BEC3E
:1032B00000F0E552E552E552E552DF6EDF5002E0E4
:1032C000FE0E02D0000E00D0106E020EE15C02E293
:1032D000E16AE552E16E1050E552E7CFD9FF1200E6
:1032E000D9CFE6FFE1CFD9FF650EE126640EDB6A98
:1032F0000001FC6B040EFD6F600EDB6A610EDB6A81
:10330000620EDB6A630EDB6AD950600FE96EDACFBA
:10331000EAFF600EEE5C000EEE58000EEE58000E56
:10332000EE581AE2D9CF10F0DACF11F0600EDB5070
:103330001024E96E610EDB501120EA6EFD0EDBCF2A
:10334000EFFFD950600FE96EDACFEAFFEE2A000EE8
:10335000EE22EE22EE22D8D7600EDB6A610EDB6A27
:10336000620EDB6A630EDB6AD950600FE96EDACF5A
:10337000EAFF150EEE5C000EEE58000EEE58000E41
:10338000EE582CE2600EE66EE66AD9CFE6FFDACFA1
:10339000E6FFFCC0E6FFFDC0E6FFFE0EDBCFE6FF6A
:1033A00054EC03F0106E070EE15E1050E76E640EF1
:1033B000E7CFDBFFDB5002E0FF0E13D0600E000111
:1033C000FC27000EFD23D950600FE96EDACFEAFF2B
:1033D000EE2A000EEE22EE22EE22C6D7640EDB505D
:1033E00000D0106E650EE15C02E2E16AE552E16E2A
:1033F0001050E552E7CFD9FF1200D9CFE6FFE1CF59
:10340000D9FF0D0EE126DF6A090EDB6A0A0EDB6AC0
:103410000B0EDB6A0C0EDB6A010E88C0DBFF020EAE
:1034200089C0DBFF030E8AC0DBFF040E8BC0DBFF0D
:10343000050EDB6A060EDB6A070EDB6A080EDB6A26
:10344000070EDB90DB82FD0EDB500D0A01E12FD170
:10345000030A01E12CD1020A01E1FFD0070A01E1D0
:10346000F9D0010A01E1CCD0030A01E19CD0010AA4
:103470006DE0190A6BE0120A66E0070A64E0010ACF
:1034800062E0030A60E0010A5EE0080A5CE01F0AED
:103490005AE0110A2EE0010A02E0FF0E4AD1040EA2
:1034A000DB6A030EDB90DB82DB84DB96DB98020EAB
:1034B000DB80DB92DB94DB96010EDB80DB92DB941E
:1034C000DB96060EDB80DB82DB84DB96DB98DB9A07
:1034D000DB9C090EDB50106ED950050FE96EDACF78
:1034E000EAFF10503F0BF36EC00EEF14F310EF6EB7
:1034F000E2D0040EDB6A030EDB90DB82DB94DB960A
:10350000DB98020EDB90DB92DB94DB96010EDB9006
:10351000DB92DB94DB96060EDB80DB82DB94DB96B2
:10352000DB98DB9ADB9C090EDB50106ED950050F3F
:10353000E96EDACFEAFF10503F0BF36EC00EEF14C6
:10354000F310EF6EB8D0FF0EF4D0B5D0040EDB6AE6
:10355000030EDB90DB82DB84DB86DB98020EDB80F4
:10356000DB82DB94DB96010EDB80DB82DB94DB9677
:10357000060EDB80DB82DB84DB86DB98DB9ADB9C60
:10358000090EDB50106ED950050FE96EDACFEAFF55
:1035900010503F0BF36EC00EEF14F310EF6E070EDA
:1035A000DB90DB9288D0040EDB6A030EDB80DB82CB
:1035B000DB84DB96DB98020EDB90DB82DB94DB9610
:1035C000010EDB90DB82DB94DB96060EDB90DB9258
:1035D000DB94DB86DB98DB9ADB9C090EDB50106EFC
:1035E000D950050FE96EDACFEAFF10503F0BF36EAA
:1035F000C00EEF14F310EF6E070EDB90DB925BD082
:10360000040EDB6A030EDB90DB82DB84DB96DB9847
:10361000020EDB80DB92DB94DB96010EDB80DB921B
:10362000DB94DB96060EDB80DB82DB84DB96DB98AB
:10363000DB9ADB9C090EDB50106ED950050FE96E4A
:10364000DACFEAFF10503F0BF36EC00EEF14F31009
:10365000EF6E31D0FF0E6DD02ED0040EDB6A030E5C
:10366000DB90DB82DB94DB96DB98020EDB90DB9257
:10367000DB94DB96010EDB90DB92DB94DB96060E8F
:10368000DB80DB82DB94DB96DB98DB9ADB9C090E2C
:10369000DB50106ED950050FE96EDACFEAFF1050FB
:1036A0003F0BF36EC00EEF14F310EF6E04D0FF0E5D
:1036B00040D001D000D0D950010FE96EDACFEAFF37
:1036C000EECFE6FFEECFE6FFEECFE6FFEFCFE6FF71
:1036D000080EE66EE66AFE0EDBCFE6FF52EC01F066
:1036E000106E070EE15E1050DF6EDF5002E0FE0E3E
:1036F00020D0D950050FE96EDACFEAFFEECFE6FF12
:10370000EECFE6FFEECFE6FFEFCFE6FF0C0EE66E64
:10371000E66AFE0EDBCFE6FF52EC01F0106E070EFC
:10372000E15E1050DF6EDF5002E0FD0E02D0DF5090
:1037300000D0106E0D0EE15C02E2E16AE552E16E2E
:103740001050E552E7CFD9FF1200D9CFE6FFE1CF05
:10375000D9FF050EE126DF6A010E84C0DBFF020EF1
:1037600085C0DBFF030E86C0DBFF040E87C0DBFFD6
:10377000FD0EDB50110A6AE01E0A50E01F0A4EE0FF
:10378000180A34E0010A32E0030A30E0010A2EE0B0
:10379000070A2CE0010A2AE0030A28E00E0A0EE0DC
:1037A000010A0CE0020A0AE0070A08E0010A06E042
:1037B000030A04E0010A02E0FF0E81D0040EDB6A76
:1037C0000E0EF36E030EF3CFDBFF020EDB80DB8207
:1037D000DB94DB96DB98DB9ADB9C010EDB80DB82E3
:1037E000DB94DB96DB98DB9ADB9C49D0040EDB6A2A
:1037F0001E0EF36E030EF3CFDBFF020EDB80DB82C7
:10380000DB84DB96DB98DB9ADB9C010EDB80DB82C2
:10381000DB84DB96DB98DB9ADB9C31D0040EDB6A21
:10382000070EF36E030EF3CFDBFF020EDB90DB829D
:10383000DB94DB96DB98DB9ADB9C010EDB90DB8272
:10384000DB94DB96DB98DB9ADB9C19D0040EDB6AF9
:103850003E0EF36E030EF3CFDBFF020EDB80DB8246
:10386000DB84DB86DB98DB9ADB9C010EDB80DB8272
:10387000DB84DB86DB98DB9ADB9C01D000D0D9505F
:10388000010FE96EDACFEAFFEECFE6FFEECFE6FFFB
:10389000EECFE6FFEFCFE6FF040EE66EE66AFE0E21
:1038A000DBCFE6FF52EC01F0106E070EE15E105028
:1038B000DF6EDF5002E0FE0E02D0DF5000D0106E4F
:1038C000050EE15C02E2E16AE552E16E1050E5525C
:1038D000E7CFD9FF1200D9CFE6FFE1CFD9FF0D0E18
:1038E000E126DF6A090EDB6A0A0EDB6A0B0EDB6A71
:1038F0000C0EDB6A010E88C0DBFF020E89C0DBFF05
:10390000030E8AC0DBFF040E8BC0DBFF050EDB6AF3
:10391000060EDB6A070EDB6A080EDB6A070EDB9019
:10392000DB82FD0EDB500E0A01E1B4D1030A01E196
:10393000AED1010A01E181D1070A01E154D1010AA6
:1039400001E127D1030A01E1F7D0010A01E1C7D063
:10395000190A01E1C4D0140A01E1BED0030A01E151
:10396000BBD0010A01E1B8D0170A01E1B5D0140AB1
:1039700001E188D0070A5CE00C0A5AE00E0A2EE04A
:10398000010A02E0FF0EEFD1040EDB6A030EDB90AA
:10399000DB82DB84DB86DB98020EDB80DB82DB9460
:1039A000DB96010EDB80DB82DB94DB96060EDB8090
:1039B000DB82DB84DB86DB98DB9ADB9C090EDB5049
:1039C000106ED950050FE96EDACFEAFF10503F0BA9
:1039D000F36EC00EEF14F310EF6E87D1040EDB6AA6
:1039E000030EDB90DB82DB84DB96DB98020EDB8050
:1039F000DB92DB94DB96010EDB80DB92DB94DB96C3
:103A0000060EDB80DB82DB84DB96DB98DB9ADB9CBB
:103A1000090EDB50106ED950050FE96EDACFEAFFC0
:103A200010503F0BF36EC00EEF14F310EF6E5DD12C
:103A3000040EDB6A030EDB90DB82DB94DB96DB9803
:103A4000020EDB90DB92DB94DB96010EDB90DB92C7
:103A5000DB94DB96060EDB80DB82DB94DB96DB9867
:103A6000DB9ADB9C090EDB50106ED950050FE96E16
:103A7000DACFEAFF10503F0BF36EC00EEF14F310D5
:103A8000EF6E33D1040EDB6A030EDB80DB92DB9436
:103A9000DB96DB98020EDB90DB92DB94DB96010E6B
:103AA000DB90DB92DB94DB96060EDB90DB82DB9413
:103AB000DB96DB98DB9ADB9C090EDB50106ED9504D
:103AC000050FE96EDACFEAFF10503F0BF36EC00E20
:103AD000EF14F310EF6E09D1FF0E45D106D1040E9D
:103AE000DB6A030EDB90DB82DB84DB86DB88020E85
:103AF000DB80DB82DB84DB96010EDB80DB82DB8418
:103B0000DB96060EDB80DB82DB84DB86DB88DB9AE0
:103B1000DB9C090EDB50106ED950050FE96EDACF31
:103B2000EAFF10503F0BF36EC00EEF14F310EF6E70
:103B3000070EDB90DB92D9D0040EDB6A030EDB802C
:103B4000DB92DB94DB96DB88020EDB90DB92DB847E
:103B5000DB96010EDB90DB92DB84DB96060EDB90BE
:103B6000DB82DB94DB96DB88DB9ADB9C090EDB5087
:103B7000106ED950050FE96EDACFEAFF10503F0BF7
:103B8000F36EC00EEF14F310EF6E070EDB90DB92B6
:103B9000ACD0040EDB6A030EDB90DB82DB84DB86B9
:103BA000DB98020EDB80DB82DB94DB96010EDB8090
:103BB000DB82DB94DB96060EDB80DB82DB84DB863C
:103BC000DB98DB9ADB9C090EDB50106ED950050F99
:103BD000E96EDACFEAFF10503F0BF36EC00EEF1420
:103BE000F310EF6E82D0040EDB6A030EDB90DB92E3
:103BF000DB94DB86DB98020EDB90DB82DB94DB96CA
:103C0000010EDB90DB82DB94DB96060EDB80DB9221
:103C1000DB94DB86DB98DB9ADB9C090EDB50106EB5
:103C2000D950050FE96EDACFEAFF10503F0BF36E63
:103C3000C00EEF14F310EF6E58D0040EDB6A030EC3
:103C4000DB90DB82DB84DB96DB98020EDB80DB9291
:103C5000DB94DB96010EDB80DB92DB94DB96060EB9
:103C6000DB80DB82DB84DB96DB98DB9ADB9C090E56
:103C7000DB50106ED950050FE96EDACFEAFF105015
:103C80003F0BF36EC00EEF14F310EF6E2ED0FF0E4D
:103C90006AD02BD0040EDB6A030EDB90DB82DB9450
:103CA000DB96DB98020EDB90DB92DB94DB96010E59
:103CB000DB90DB92DB94DB96060EDB80DB82DB9411
:103CC000DB96DB98DB9ADB9C090EDB50106ED9503B
:103CD000050FE96EDACFEAFF10503F0BF36EC00E0E
:103CE000EF14F310EF6E01D000D0D950010FE96E40
:103CF000DACFEAFFEECFE6FFEECFE6FFEECFE6FF4C
:103D0000EFCFE6FF080EE66EE66AFE0EDBCFE6FFBB
:103D100052EC01F0106E070EE15E1050DF6EDF50C6
:103D200002E0FE0E20D0D950050FE96EDACFEAFF8F
:103D3000EECFE6FFEECFE6FFEECFE6FFEFCFE6FFFA
:103D40000C0EE66EE66AFE0EDBCFE6FF52EC01F0EB
:103D5000106E070EE15E1050DF6EDF5002E0FD0EC8
:103D600002D0DF5000D0106E0D0EE15C02E2E16A7D
:103D7000E552E16E1050E552E7CFD9FF1200D9CFDE
:103D8000E6FFE1CFD9FF050EE126DF6A010E84C010
:103D9000DBFF020E85C0DBFF030E86C0DBFF040ED7
:103DA00087C0DBFFFD0EDB50110A6AE01E0A50E0FF
:103DB0001F0A4EE0180A34E0010A32E0030A30E03C
:103DC000010A2EE0070A2CE0010A2AE0030A28E093
:103DD0000E0A0EE0010A0CE0020A0AE0070A08E0F7
:103DE000010A06E0030A04E0010A02E0FF0E81D0A6
:103DF000040EDB6A1E0EF36E030EF3CFDBFF020E22
:103E0000DB80DB82DB84DB96DB98DB9ADB9C010EBC
:103E1000DB80DB82DB84DB96DB98DB9ADB9C49D0A2
:103E2000040EDB6A3E0EF36E030EF3CFDBFF020ED1
:103E3000DB80DB82DB84DB86DB98DB9ADB9C010E9C
:103E4000DB80DB82DB84DB86DB98DB9ADB9C31D09A
:103E5000040EDB6A0E0EF36E030EF3CFDBFF020ED1
:103E6000DB80DB82DB94DB96DB98DB9ADB9C010E4C
:103E7000DB80DB82DB94DB96DB98DB9ADB9C19D062
:103E8000040EDB6A7E0EF36E030EF3CFDBFF020E31
:103E9000DB80DB82DB84DB86DB88DB9ADB9C010E4C
:103EA000DB80DB82DB84DB86DB88DB9ADB9C01D07A
:103EB00000D0D950010FE96EDACFEAFFEECFE6FF6E
:103EC000EECFE6FFEECFE6FFEFCFE6FF040EE66EA5
:103ED000E66AFE0EDBCFE6FF52EC01F0106E070E35
:103EE000E15E1050DF6EDF5002E0FE0E02D0DF50C8
:103EF00000D0106E050EE15C02E2E16AE552E16E6F
:103F00001050E552E7CFD9FF1200D9CFE6FFE1CF3D
:103F1000D9FF0D0EE126DF6A090EDB6A0A0EDB6AA5
:103F20000B0EDB6A0C0EDB6A010E88C0DBFF020E93
:103F300089C0DBFF030E8AC0DBFF040E8BC0DBFFF2
:103F4000050EDB6A060EDB6A070EDB6A080EDB6A0B
:103F5000070EDB90DB82FD0EDB500E0A01E17AD208
:103F6000030A01E14DD2010A01E120D2070A01E171
:103F7000F3D1010A01E1C6D1030A01E193D1010A9B
:103F800001E160D1190A01E15DD1160A01E138D1E0
:103F9000010A01E113D1160A01E110D1150A01E16C
:103FA000E3D0010A01E1B6D0070A01E189D00C0A89
:103FB00001E186D00D0A5AE0030A2EE0010A02E070
:103FC000FF0EB1D2040EDB6A030EDB90DB82DB84D2
:103FD000DB86DB88020EDB80DB82DB84DB96010E76
:103FE000DB80DB82DB84DB96060EDB80DB82DB841E
:103FF000DB86DB88DB9ADB9C090EDB50106ED95028
:10400000050FE96EDACFEAFF10503F0BF36EC00EDA
:10401000EF14F310EF6E49D2040EDB6A030EDB904F
:10402000DB82DB84DB86DB98020EDB80DB82DB94C9
:10403000DB96010EDB80DB82DB94DB96060EDB80F9
:10404000DB82DB84DB86DB98DB9ADB9C090EDB50B2
:10405000106ED950050FE96EDACFEAFF10503F0B12
:10406000F36EC00EEF14F310EF6E1FD2040EDB6A76
:10407000030EDB90DB92DB94DB86DB98020EDB9099
:10408000DB82DB94DB96010EDB90DB82DB94DB963C
:10409000060EDB80DB92DB94DB86DB98DB9ADB9C15
:1040A000090EDB50106ED950050FE96EDACFEAFF2A
:1040B00010503F0BF36EC00EEF14F310EF6EF5D1FE
:1040C000040EDB6A030EDB90DB82DB84DB96DB987D
:1040D000020EDB80DB92DB94DB96010EDB80DB9251
:1040E000DB94DB96060EDB80DB82DB84DB96DB98E1
:1040F000DB9ADB9C090EDB50106ED950050FE96E80
:10410000DACFEAFF10503F0BF36EC00EEF14F3103E
:10411000EF6ECBD1040EDB6A030EDB90DB92DB8407
:10412000DB96DB98020EDB80DB92DB94DB96010EE4
:10413000DB80DB92DB94DB96060EDB80DB92DB849C
:10414000DB96DB98DB9ADB9C090EDB50106ED950B6
:10415000050FE96EDACFEAFF10503F0BF36EC00E89
:10416000EF14F310EF6EA1D1040EDB6A030EDB80B7
:10417000DB82DB94DB96DB98020EDB90DB92DB9438
:10418000DB96010EDB90DB92DB94DB96060EDB9078
:10419000DB92DB84DB96DB98DB9ADB9C090EDB5041
:1041A000106ED950050FE96EDACFEAFF10503F0BC1
:1041B000F36EC00EEF14F310EF6E77D1040EDB6ACE
:1041C000030EDB90DB82DB94DB96DB98020EDB9048
:1041D000DB92DB94DB96010EDB90DB92DB94DB96CB
:1041E000060EDB80DB82DB94DB96DB98DB9ADB9CC4
:1041F000050EDB80DB92DB94DB96DB98DB9A55D1F6
:10420000040EDB6A030EDB80DB92DB94DB96DB982B
:10421000020EDB90DB92DB94DB96010EDB90DB92EF
:10422000DB94DB96060EDB90DB82DB94DB96DB987F
:10423000DB9ADB9C050EDB90DB92DB94DB96DB9854
:10424000DB9A33D1010EF36E040EF3CFDBFF030EC6
:10425000DB90DB82DB84DB86DB88020EDB80DB82AB
:10426000DB84DB96010EDB80DB82DB84DB96060ED3
:10427000DB80DB82DB84DB86DB88DB9ADB9C090E60
:10428000DB50106ED950050FE96EDACFEAFF1050FF
:104290003F0BF36EC00EEF14F310EF6E070EDB90C2
:1042A000DB9203D1010EF36E040EF3CFDBFF030E9E
:1042B000DB80DB92DB94DB96DB88020EDB90DB920B
:1042C000DB84DB96010EDB90DB92DB84DB96060E53
:1042D000DB90DB82DB94DB96DB88DB9ADB9C090ED0
:1042E000DB50106ED950050FE96EDACFEAFF10509F
:1042F0003F0BF36EC00EEF14F310EF6E070EDB9062
:10430000DB92D3D0040EDB6A030EDB90DB82DB840E
:10431000DB86DB88020EDB80DB82DB84DB96010E32
:10432000DB80DB82DB84DB96060EDB80DB82DB84DA
:10433000DB86DB88DB9ADB9C090EDB50106ED950E4
:10434000050FE96EDACFEAFF10503F0BF36EC00E97
:10435000EF14F310EF6EA9D0040EDB6A030EDB90AE
:10436000DB82DB94DB96DB88020EDB80DB92DB8476
:10437000DB96010EDB80DB92DB84DB96060EDB80B6
:10438000DB82DB94DB96DB88DB9ADB9C090EDB505F
:10439000106ED950050FE96EDACFEAFF10503F0BCF
:1043A000F36EC00EEF14F310EF6E7FD0040EDB6AD5
:1043B000030EDB90DB82DB84DB86DB98020EDB8086
:1043C000DB82DB94DB96010EDB80DB82DB94DB9609
:1043D000060EDB80DB82DB84DB86DB98DB9ADB9CF2
:1043E000090EDB50106ED950050FE96EDACFEAFFE7
:1043F00010503F0BF36EC00EEF14F310EF6E55D05C
:10440000040EDB6A030EDB90DB92DB94DB86DB9829
:10441000020EDB90DB82DB94DB96010EDB90DB820D
:10442000DB94DB96060EDB80DB92DB94DB86DB988D
:10443000DB9ADB9C090EDB50106ED950050FE96E3C
:10444000DACFEAFF10503F0BF36EC00EEF14F310FB
:10445000EF6E2BD0040EDB6A030EDB90DB82DB8475
:10446000DB96DB98020EDB80DB92DB94DB96010EA1
:10447000DB80DB92DB94DB96060EDB80DB82DB8469
:10448000DB96DB98DB9ADB9C090EDB50106ED95073
:10449000050FE96EDACFEAFF10503F0BF36EC00E46
:1044A000EF14F310EF6E01D000D0D950010FE96E78
:1044B000DACFEAFFEECFE6FFEECFE6FFEECFE6FF84
:1044C000EFCFE6FF080EE66EE66AFE0EDBCFE6FFF4
:1044D00052EC01F0106E070EE15E1050DF6EDF50FF
:1044E00002E0FE0E20D0D950050FE96EDACFEAFFC8
:1044F000EECFE6FFEECFE6FFEECFE6FFEFCFE6FF33
:104500000C0EE66EE66AFE0EDBCFE6FF52EC01F023
:10451000106E070EE15E1050DF6EDF5002E0FD0E00
:1045200002D0DF5000D0106E0D0EE15C02E2E16AB5
:10453000E552E16E1050E552E7CFD9FF1200D9CF16
:10454000E6FFE1CFD9FF050EE126DF6A010E84C048
:10455000DBFF020E85C0DBFF030E86C0DBFF040E0F
:1045600087C0DBFFFD0EDB50110A6CE01E0A52E033
:104570001F0A50E0180A36E0010A34E0030A32E06C
:10458000010A30E0070A2EE0010A2CE0030A2AE0C3
:104590000E0A10E0010A0EE0030A0CE0010A0AE02C
:1045A000070A08E0010A06E0030A04E0010A02E043
:1045B000FF0E7DD0040EDB6A3E0EF36E030EF3CFCA
:1045C000DBFF020EDB80DB82DB84DB86DB98DB9AA1
:1045D000DB9C010EDB80DB82DB84DB86DB98DB9AF5
:1045E000DB9C49D0040EDB6A7E0EF36E030EF3CF24
:1045F000DBFF020EDB80DB82DB84DB86DB88DB9A81
:10460000DB9C010EDB80DB82DB84DB86DB88DB9AD4
:10461000DB9C31D0040EDB6A1E0EF36E030EF3CF6B
:10462000DBFF020EDB80DB82DB84DB96DB98DB9A30
:10463000DB9C010EDB80DB82DB84DB96DB98DB9A84
:10464000DB9C19D0040EDB6AFE0EF36E030EF3CF73
:10465000DBFF020EDB80DB82DB84DB86DB88DB8A30
:10466000DB9C010EDB80DB82DB84DB86DB88DB8A84
:10467000DB9C01D000D0D950010FE96EDACFEAFF00
:10468000EECFE6FFEECFE6FFEECFE6FFEFCFE6FFA1
:10469000040EE66EE66AFE0EDBCFE6FF52EC01F09A
:1046A000106E070EE15E1050DF6EDF5000D0106E0E
:1046B000050EE15C02E2E16AE552E16E1050E5525E
:1046C000E7CFD9FF1200D9CFE6FFE1CFD9FF040E23
:1046D000E126DE6ADE6ADE6ADD6ADD52DD52000056
:1046E0000000FE0EDBCF10F0090EE76E1018E8AEEA
:1046F00002D0E73402D0E750105C17E2FE0EDBCFA9
:1047000010F0116A126A136A10AE03D011681268B1
:10471000136810C0DFFF010E11C0DBFF020E12C0D4
:10472000DBFF030E13C0DBFF4AD0FE0EDB500F0A87
:104730003DE0010A33E0030A29E0010A1FE0070A0D
:1047400015E0010A0BE0030A01E038D00C0EDE6E22
:10475000DE6ADE6ADD6ADD52DD5231D0100EDE6EB9
:10476000DE6ADE6ADD6ADD52DD5229D0140EDE6EAD
:10477000DE6ADE6ADD6ADD52DD5221D0180EDE6EA1
:10478000DE6ADE6ADD6ADD52DD5219D0200EDE6E91
:10479000DE6ADE6ADD6ADD52DD5211D0300EDE6E79
:1047A000DE6ADE6ADD6ADD52DD5209D0400EDE6E61
:1047B000DE6ADE6ADD6ADD52DD5201D000D0DECF76
:1047C00004F0DECF05F0DECF06F0DDCF07F0DD52DE
:1047D000DD5200D0040EE15C02E2E16AE552E16ED6
:1047E000E552E7CFD9FF1200D9CFE6FFE1CFD9FFDD
:1047F000E652DF6AFE0EDB50040803E3040EDF6EB0
:1048000037D0FE0EDB50080803E3080EDF6E30D011
:10481000FE0EDB500C0803E3090EDF6E29D0FE0EFE
:10482000DB50100803E30A0EDF6E22D0FE0EDB50D1
:10483000140803E30B0EDF6E1BD0FE0EDB501808CE
:1048400003E30C0EDF6E14D0FE0EDB50200803E3F2
:104850000D0EDF6E0DD0FE0EDB50300803E30E0EA2
:10486000DF6E06D0FE0EDB50400802E30F0EDF6E57
:10487000DF5000D0E552E552E7CFD9FF1200D9CF83
:10488000E6FFE1CFD9FF090EE126040EDB6AFB0E3D
:10489000DBCFE9FFFC0EDBCFEAFFEFCF10F0050E18
:1048A00010C0DBFF060EDB6A070EDB6A080EDB6A50
:1048B000FB0EDBCFE9FFFC0EDBCFEAFFEE52EE5240
:1048C000EE52EF501C0BE842E842106E116A126A79
:1048D000136A080E1F0B07E0D890103611361236F7
:1048E0001336E806F9E1D950050FE96EDACFEAFF91
:1048F000EE501012EE501112EE501212EE50131232
:10490000050E10C0DBFF060E11C0DBFF070E12C044
:10491000DBFF080E13C0DBFFFB0EDBCFE9FFFC0E55
:10492000DBCFEAFFEE52EFCF10F0116A126A136A82
:104930000B0E1F0B07E0D8901036113612361336C7
:10494000E806F9E1D950050FE96EDACFEAFFEE503B
:104950001012EE501112EE501212EE501312050EFC
:1049600010C0DBFF060E11C0DBFF070E12C0DBFF1D
:10497000080E13C0DBFFFB0EDBCFE9FFFC0EDBCF25
:10498000EAFF020EE926000EEA22EFCF10F0116ACC
:10499000126A136A130E1F0B07E0D89010361136F7
:1049A00012361336E806F9E1D950050FE96EDACF71
:1049B000EAFFEE501012EE501112EE501212EE50AD
:1049C0001312050E10C0DBFF060E11C0DBFF070E31
:1049D00012C0DBFF080E13C0DBFFFB0EDBCFE9FFCD
:1049E000FC0EDBCFEAFFEE52EE52EE52EF50030B1D
:1049F000106E116A126A136A1B0E1F0B07E0D89023
:104A00001036113612361336E806F9E1D950050F83
:104A1000E96EDACFEAFFEE501012EE501112EE50AE
:104A20001212EE501312050E10C0DBFF060E11C05D
:104A3000DBFF070E12C0DBFF080E13C0DBFFFB0E0F
:104A4000DBCFE9FFFC0EDBCFEAFFEE52EE52EE5277
:104A5000EF50200B01E0010E106E116A126A136A0A
:104A60001D0E1F0B07E0D890103611361236133684
:104A7000E806F9E1D950050FE96EDACFEAFFEE500A
:104A80001012EE501112EE501212EE501312050ECB
:104A900010C0DBFF060E11C0DBFF070E12C0DBFFEC
:104AA000080E13C0DBFFFB0EDBCFE9FFFC0EDBCFF4
:104AB000EAFFEE52EE52EE52EF50400B01E0010ED3
:104AC000106E116A126A136A1E0E1F0B07E0D8904F
:104AD0001036113612361336E806F9E1D950050FB3
:104AE000E96EDACFEAFFEE501012EE501112EE50DE
:104AF0001212EE501312050E10C0DBFF060E11C08D
:104B0000DBFF070E12C0DBFF080E13C0DBFFD9CF9F
:104B1000E9FFDACFEAFF050EDBCFEEFF060EDBCFB3
:104B2000EEFF070EDBCFEEFF080EDBCFEEFFFD0E34
:104B3000DB50080DF3CFFCF00001FD6BFCBFFD69FD
:104B4000F00EFC27010EFD23D9CFE9FFDACFEAFFF3
:104B5000EECFE6FFEECFE6FFEECFE6FFEFCFE6FFCC
:104B6000FCC0E6FFFDC0E6FFFE0EDBCFE6FF52EC29
:104B700001F0106E070EE15E1050E76E040EE7CFF5
:104B8000DBFFDB50106E090EE15C03E200D0E16A4E
:104B9000E552E16E1050E552E7CFD9FF1200D9CFB0
:104BA000E6FFE1CFD9FF090EE126040EDB6A000023
:104BB000FB0EDBCFE9FFFC0EDBCFEAFFEFCF10F0FF
:104BC000050E10C0DBFF060EDB6A070EDB6A080E5F
:104BD000DB6AFB0EDBCFE9FFFC0EDBCFEAFFEE5218
:104BE000EE52EE52EF501C0BE842E842106E116A92
:104BF000126A136A080E1F0B07E0D89010361136A0
:104C000012361336E806F9E1D950050FE96EDACF0E
:104C1000EAFFEE501012EE501112EE501212EE504A
:104C20001312050E10C0DBFF060E11C0DBFF070ECE
:104C300012C0DBFF080E13C0DBFFFB0EDBCFE9FF6A
:104C4000FC0EDBCFEAFFEE52EFCF10F0116A126AD2
:104C5000136A0B0E1F0B07E0D89010361136123670
:104C60001336E806F9E1D950050FE96EDACFEAFF0D
:104C7000EE501012EE501112EE501212EE501312AE
:104C8000050E10C0DBFF060E11C0DBFF070E12C0C1
:104C9000DBFF080E13C0DBFFFB0EDBCFE9FFFC0ED2
:104CA000DBCFEAFF020EE926000EEA22EFCF10F07A
:104CB000116A126A136A130E1F0B07E0D8901036A0
:104CC000113612361336E806F9E1D950050FE96EB0
:104CD000DACFEAFFEE501012EE501112EE5012121F
:104CE000EE501312050E10C0DBFF060E11C0DBFFE5
:104CF000070E12C0DBFF080E13C0DBFFFB0EDBCF7D
:104D0000E9FFFC0EDBCFEAFFEE52EE52EE52EF501F
:104D1000030B106E116A126A136A1B0E1F0B07E059
:104D2000D8901036113612361336E806F9E1D9500C
:104D3000050FE96EDACFEAFFEE501012EE501112B5
:104D4000EE501212EE501312050E10C0DBFF060ECD
:104D500011C0DBFF070E12C0DBFF080E13C0DBFF24
:104D6000FB0EDBCFE9FFFC0EDBCFEAFFEE52EE528B
:104D7000EE52EF50200B01E0010E106E116A126A24
:104D8000136A1D0E1F0B07E0D8901036113612362D
:104D90001336E806F9E1D950050FE96EDACFEAFFDC
:104DA000EE501012EE501112EE501212EE5013127D
:104DB000050E10C0DBFF060E11C0DBFF070E12C090
:104DC000DBFF080E13C0DBFF0000D9CFE9FFDACF0D
:104DD000EAFF050EDBCFEEFF060EDBCFEEFF070E80
:104DE000DBCFEEFF080EDBCFEEFFFD0EDB50080D34
:104DF000F3CFFCF00001FD6BFCBFFD69F40E000178
:104E0000FC27010E0001FD23D9CFE9FFDACFEAFF2D
:104E1000EECFE6FFEECFE6FFEECFE6FFEFCFE6FF09
:104E2000FCC0E6FFFDC0E6FFFE0EDBCFE6FF52EC66
:104E300001F0106E070EE15E1050E76E040EE7CF32
:104E4000DBFF040EDB5000D0106E090EE15C02E2C5
:104E5000E16AE552E16E1050E552E7CFD9FF12004A
:104E6000D9CFE6FFE1CFD9FF020EE126010EDB6AC2
:104E7000FB0EDB5002E0DF8E01D0DF9EFC0EDB502C
:104E8000106ED9CFE9FFDACFEAFF10501F0BF36E97
:104E9000E00EEF14F310EF6EFD0EDBCFFCF000011F
:104EA000FD6BFCBFFD69D00EFC27010EFD23DFCF9B
:104EB000E6FFFCC0E6FFFDC0E6FFFE0EDBCFE6FF2F
:104EC0007BEC00F0E552E552E552E552E76E010E4B
:104ED000E7CFDBFFDB50106E020EE15C03E200D097
:104EE000E16AE552E16E1050E552E7CFD9FF1200BA
:104EF000D9CFE6FFE1CFD9FF020EE126010EDB6A32
:104F0000FD0EDBCFFCF00001FD6BFCBFFD69D00E98
:104F1000FC27010EFD23D9CFE6FFDACFE6FFFCC068
:104F2000E6FFFDC0E6FFFE0EDBCFE6FF38EC00F04B
:104F3000106E050EE15E1050E76E010EE7CFDBFF4D
:104F4000DB5002E0FF0E1BD0DF9EDFCFE6FFFCC090
:104F5000E6FFFDC0E6FFFE0EDBCFE6FF7BEC00F0D8
:104F6000E552E552E552E552E76E010EE7CFDBFF71
:104F7000DB5002E0FE0E03D0010EDB5000D0106EBD
:104F8000020EE15C02E2E16AE552E16E1050E55288
:104F9000E7CFD9FF1200D9CFE6FFE1CFD9FF050E49
:104FA000E126DF6A010EC0C0DBFF020EC1C0DBFFDD
:104FB000030EC2C0DBFF040EC3C0DBFFFC0EDBCF61
:104FC000E9FFFD0EDBCFEAFFEF503E0BE842106E2B
:104FD000D950010FE96EDACFEAFFEE52EE52EE52EF
:104FE00010501F0BF36EE00EEF14F310EF6EFC0E7B
:104FF000DBCFE9FFFD0EDBCFEAFFEF50010B106EB8
:10500000D950010FE96EDACFEAFF1050010BF36EB1
:10501000F346F346F346F346F346DF0EEF14F31080
:10502000EF6ED950010FE96EDACFEAFFEECFE6FF5F
:10503000EECFE6FFEECFE6FFEFCFE6FF400EE66EE7
:10504000E66AFE0EDBCFE6FF52EC01F0106E070EB3
:10505000E15E1050DF6EDF50106E050EE15C03E282
:1050600000D0E16AE552E16E1050E552E7CFD9FF7A
:105070001200D9CFE6FFE1CFD9FF070EE126DF6AA4
:10508000010EDB6A020EDB6A030ED0C0DBFF040EEA
:10509000D1C0DBFF050ED2C0DBFF060ED3C0DBFFA5
:1050A000030EDB8EFC0EDBCFE9FFFD0EDBCFEAFF4C
:1050B000EE52EF501F0B106ED950030FE96EDACF8E
:1050C000EAFFEE52EE52EE5210501F0BF36EE00E5E
:1050D000EF14F310EF6EFC0EDBCFE9FFFD0EDBCF1C
:1050E000EAFFEE52EF50E00BE842E842E842E842C5
:1050F000E842106ED950030FE96EDACFEAFFEE52A4
:10510000EE52EE521050070BF36EF346F346F346A1
:10511000F346F3461F0EEF14F310EF6EFC0EDBCFD9
:10512000E9FFFD0EDBCFEAFFEF50600BE842E842FB
:10513000E842E842E842106ED950030FE96EDACF38
:10514000EAFFEE52EE521050030BF36EF346F346B5
:10515000F346F346F3469F0EEF14F310EF6EFC0E8A
:10516000DBCFE9FFFD0EDBCFEAFFEF501F0B106E28
:10517000D950030FE96EDACFEAFFEE52EE5210502B
:105180001F0BF36EE00EEF14F310EF6E500EF36E84
:10519000010EF3CFDBFF020EDB6AD950030FE96E7D
:1051A000DACFEAFFEECFE6FFEECFE6FFEECFE6FF87
:1051B000EFCFE6FF010EDBCFE6FF020EDBCFE6FF0F
:1051C000FE0EDBCFE6FF52EC01F0106E070EE15E43
:1051D0001050DF6EDF50106E070EE15C03E200D06E
:1051E000E16AE552E16E1050E552E7CFD9FF1200B7
:1051F000D9CFE6FFE1CFD9FF040EE126D0C0DFFF13
:10520000010ED1C0DBFF020ED2C0DBFF030ED3C004
:10521000DBFFD9CFE9FFDACFEAFFEE52EE52EF50D3
:105220001F0B106EFD0EDBCFE9FFFE0EDBCFEAFF9A
:1052300010501F0BF36EE00EEF14F310EF6ED9CF8A
:10524000E9FFDACFEAFFEE52EE52EF50600BE84290
:10525000E842E842E842E842106EFD0EDBCFE9FF8B
:10526000FE0EDBCFEAFF1050030BF36EF346F3465E
:10527000F346F346F3469F0EEF14F310EF6ED9CFCB
:10528000E9FFDACFEAFFEE52EE52EE52EF501F0B7B
:10529000106EFD0EDBCFE9FFFE0EDBCFEAFFEE5214
:1052A00010501F0BF36EE00EEF14F310EF6ED9CF1A
:1052B000E9FFDACFEAFFEE52EE52EE52EF50E00B8A
:1052C000E842E842E842E842E842106EFD0EDBCFD9
:1052D000E9FFFE0EDBCFEAFFEE521050070BF36E34
:1052E000F346F346F346F346F3461F0EEF14F3106E
:1052F000EF6E000E106E040EE15C03E200D0E16A76
:0E530000E552E16E1050E552E7CFD9FF1200E2
:02530E00D9CFF5
:10531000E6FFE1CFD9FF160EE126030EDB6A040E8D
:10532000DB6A050EDB6A060EDB6A330EF36E090ECE
:10533000F3CFDBFF550EF36E0A0EF3CFDBFF0B0E40
:10534000DB6A0C0EDB6A8A80939072EC2DF0100EF3
:10535000F36E070EF3CFDBFF080EDB6AE66A10EC94
:1053600000F0E5525A0EE66E5A0EE66E070EDBCFDF
:10537000E6FF080EDBCFE6FFE66A60EC02F0106E97
:10538000050EE15E1050AA0EE66EAA0EE66E120E33
:10539000E66EE66AE66A60EC02F0106E050EE15E0B
:1053A0001050D950030FE66E000EDA20E66E070E9D
:1053B000DBCFE6FF080EDBCFE6FFE66AC6EC00F0C7
:1053C000106E050EE15E10500000E66A10EC00F071
:1053D000E552E66A2BEC19F0E55202017D5109E134
:1053E000E66AE66A70EC19F0E552E5520201010E38
:1053F0007D6FF40EF36E070EF3CFDBFF0B0EF36E33
:10540000080EF3CFDBFFBC0EE66E010EE66ED6ECA7
:1054100006F0E552E5520101BC8B0101BD9D010181
:10542000BD9FBC0EE66E010EE66EE66A5BEC05F013
:10543000E552E552E552080EE66E010EE66E84EC8A
:1054400018F0E552E5520101099109930995099770
:1054500009990101098B098D098F010108930895AC
:1054600008970899089B080EE66E010EE66E020E7C
:10547000E66EE66AA1EC17F0E552E552E552E55218
:10548000580EE66E010EE66E8FEC16F0E552E55210
:1054900001015883588558875889589B01015981C3
:1054A0005983598501015881580EE66E010EE66E4A
:1054B000010EE66EE66AF9EC16F0E552E552E552A9
:1054C000E5520101BB83BB85BB97BB89BB9B010137
:1054D000BB81BB0EE66E010EE66EE66ACBEC27F0F2
:1054E000E552E552E552E66AE66A78EC27F0E552C5
:1054F000E55201015A6B5B6B5C6B5D6B0101040E45
:105500005A6F01015D955D975D9901015D9D0101F6
:105510005B6B01015C6B01015D915D935A0EE66E60
:10552000010EE66EE66AE66A3FEC24F0E552E552CB
:10553000E552E55201015E6B5F6B606B616B0101CF
:105540005E6B01016195619761990101618D0101B6
:105550005F6B0101606B5E0EE66E010EE66EE66A41
:10556000E66ACFEC25F0E552E552E552E552010E30
:10557000E66E010EE66EE66AE66A30EC27F0E5526A
:10558000E552E552E552E66A020EE66E7EC2E6FF9D
:10559000E66A1CEC16F0E552E552E552E552050EBE
:1055A000E66EE66A3EEC08F0E552E55201010C6B4E
:1055B0000D6B0E6B0F6B0101106B116B126B136B8C
:1055C0000E0EDB6A040EF36E0F0EF3CFDBFF100E30
:1055D000DB6A110EDB6A0E0EDBCF14F00F0EDBCF91
:1055E00015F0100EDBCF16F0110EDBCF17F015C043
:1055F00010F016C011F017C012F00001136A070E68
:105600001016116A126A136A10C00CF10E0EDBCF6D
:1056100010F00F0EDBCF11F0100EDBCF12F0110ED9
:10562000DBCF13F010500101070BF36EF346F34686
:10563000E30E0F15F3100F6F01010D6B01010E6BDF
:1056400001010F910F930101108D01011081108351
:10565000108510870101108F01011099010111932C
:10566000119511971199119B119D119F0B0EDB6ADA
:105670000C0EDB6A0B0EDBCF10F00C0EDBCF11F043
:10568000D890115004E6400E105C000E115828E22C
:105690000B0EDBCF10F00C0EDBCF11F0400ED880DC
:1056A0001056000E11560B0EDBCFE9FF0C0EDBCFB0
:1056B000EAFF180EE926010EEA2210C0EFFF0B0EDA
:1056C000DBCFE9FF0C0EDBCFEAFF6F0EE926010E00
:1056D000EA22EF6A0B0EDB2A0C0E01E3DB2ACAD7A3
:1056E0000A0EE66E010EE66E020EE66EE66A80ECCB
:1056F0000EF0E552E552E552E55201010AA1FDD74F
:10570000010110510F0BE66E63EC23F0E552010E20
:1057100004C0DBFF010EE66E010EDBCF10F0116A54
:10572000126A136A10C0E6FF11C0E6FF12C0E6FF5E
:1057300013C0E6FF180EE66E010EE66E0C0EE66E66
:10574000010EE66E020EE66EE66AA0EC0BF0146E39
:105750000B0EE15E1450DF6E620EE66E010EE66E19
:10576000010EE66EE66A5DEC12F0E552E552E55296
:10577000E552010162A117D0400EE66E6F0EE66E93
:10578000010EE66E630EE66E010EE66E010EE66E2B
:10579000E66A39EC14F0106E070EE15E105000005E
:1057A00000000000000002D7160EE15C02E2E16A90
:0C57B000E552E16EE552E7CFD9FF120090
:0457BC00008040C069
:1057C00020A060E0109050D030B070F0088848C839
:1057D00028A868E8189858D838B878F8048444C4D9
:1057E00024A464E4149454D434B474F40C8C4CCCD9
:1057F0002CAC6CEC1C9C5CDC3CBC7CFC028242C291
:1058000022A262E2129252D232B272F20A8A4ACAD8
:105810002AAA6AEA1A9A5ADA3ABA7AFA068646C678
:1058200026A666E6169656D636B676F60E8E4ECE78
:105830002EAE6EEE1E9E5EDE3EBE7EFE018141C13C
:1058400021A161E1119151D131B171F1098949C9A8
:1058500029A969E9199959D939B979F9058545C548
:1058600025A565E5159555D535B575F50D8D4DCD48
:105870002DAD6DED1D9D5DDD3DBD7DFD038343C300
:1058800023A363E3139353D333B373F30B8B4BCB48
:105890002BAB6BEB1B9B5BDB3BBB7BFB078747C7E8
:1058A00027A767E7179757D737B777F70F8F4FCFE8
:1058B0002FAF6FEF1F9F5FDF3FBF7FFF00000580AF
:1058C0000F800A001B801E001400118033803600F8
:1058D0003C00398028002D802780220063806600EC
:1058E0006C00698078007D80778072005000558060
:1058F0005F805A004B804E0044004180C380C60048
:10590000CC00C980D800DD80D780D200F000F580BF
:10591000FF80FA00EB80EE00E400E180A000A580AB
:10592000AF80AA00BB80BE00B400B1809380960017
:105930009C00998088008D80878082008381860109
:105940008C01898198019D8197819201B001B58177
:10595000BF81BA01AB81AE01A401A181E001E58163
:10596000EF81EA01FB81FE01F401F181D381D601CF
:10597000DC01D981C801CD81C781C20140014581C7
:105980004F814A015B815E0154015181738176012F
:105990007C01798168016D81678162012381260123
:1059A0002C01298138013D81378132011001158197
:1059B0001F811A010B810E0104010181038306037B
:1059C0000C03098318031D831783120330033583E7
:1059D0003F833A032B832E032403218360036583D3
:1059E0006F836A037B837E0374037183538356033F
:1059F0005C03598348034D8347834203C003C58337
:105A0000CF83CA03DB83DE03D403D183F383F6039E
:105A1000FC03F983E803ED83E783E203A383A60392
:105A2000AC03A983B803BD83B783B2039003958306
:105A30009F839A038B838E038403818380028582F4
:105A40008F828A029B829E0294029182B382B60266
:105A5000BC02B982A802AD82A782A202E382E6025A
:105A6000EC02E982F802FD82F782F202D002D582CE
:105A7000DF82DA02CB82CE02C402C18243824602B6
:105A80004C02498258025D8257825202700275822E
:105A90007F827A026B826E0264026182200225821A
:105AA0002F822A023B823E02340231821382160286
:0C5AB0001C02198208020D82078202020B
:045ABC00D9CFE6FF59
:105AC000E1CFD9FFE652DF6A9390FD0EDB5002E092
